{
  "contractName": "Subscription",
  "abi": [
    {
      "inputs": [
        {
          "internalType": "string",
          "name": "_name",
          "type": "string"
        },
        {
          "internalType": "uint256",
          "name": "_price",
          "type": "uint256"
        },
        {
          "internalType": "uint256",
          "name": "_timeframe",
          "type": "uint256"
        }
      ],
      "stateMutability": "nonpayable",
      "type": "constructor"
    },
    {
      "inputs": [
        {
          "internalType": "address",
          "name": "owner",
          "type": "address"
        }
      ],
      "name": "OwnableInvalidOwner",
      "type": "error"
    },
    {
      "inputs": [
        {
          "internalType": "address",
          "name": "account",
          "type": "address"
        }
      ],
      "name": "OwnableUnauthorizedAccount",
      "type": "error"
    },
    {
      "anonymous": false,
      "inputs": [
        {
          "indexed": true,
          "internalType": "address",
          "name": "user",
          "type": "address"
        }
      ],
      "name": "CancelSubscription",
      "type": "event"
    },
    {
      "anonymous": false,
      "inputs": [
        {
          "indexed": true,
          "internalType": "address",
          "name": "potentialSubAcct",
          "type": "address"
        }
      ],
      "name": "ConfirmSplitAcctApproval",
      "type": "event"
    },
    {
      "anonymous": false,
      "inputs": [
        {
          "indexed": true,
          "internalType": "address",
          "name": "potentialSubAcct",
          "type": "address"
        }
      ],
      "name": "ConfirmSubAcctApproval",
      "type": "event"
    },
    {
      "anonymous": false,
      "inputs": [
        {
          "indexed": true,
          "internalType": "address",
          "name": "user",
          "type": "address"
        }
      ],
      "name": "DeleteMembership",
      "type": "event"
    },
    {
      "anonymous": false,
      "inputs": [
        {
          "indexed": true,
          "internalType": "address",
          "name": "previousOwner",
          "type": "address"
        },
        {
          "indexed": true,
          "internalType": "address",
          "name": "newOwner",
          "type": "address"
        }
      ],
      "name": "OwnershipTransferred",
      "type": "event"
    },
    {
      "anonymous": false,
      "inputs": [
        {
          "indexed": true,
          "internalType": "string",
          "name": "_name",
          "type": "string"
        },
        {
          "indexed": false,
          "internalType": "uint256",
          "name": "_price",
          "type": "uint256"
        }
      ],
      "name": "PriceUpdate",
      "type": "event"
    },
    {
      "anonymous": false,
      "inputs": [
        {
          "indexed": true,
          "internalType": "address",
          "name": "potentialSubAcct",
          "type": "address"
        }
      ],
      "name": "RejectApproval",
      "type": "event"
    },
    {
      "anonymous": false,
      "inputs": [
        {
          "indexed": true,
          "internalType": "uint256",
          "name": "id",
          "type": "uint256"
        },
        {
          "indexed": false,
          "internalType": "address",
          "name": "from",
          "type": "address"
        },
        {
          "indexed": false,
          "internalType": "address",
          "name": "to",
          "type": "address"
        },
        {
          "indexed": false,
          "internalType": "enum Subscription.ApprovalType",
          "name": "approvalType",
          "type": "uint8"
        }
      ],
      "name": "SendApproval",
      "type": "event"
    },
    {
      "anonymous": false,
      "inputs": [
        {
          "indexed": true,
          "internalType": "address",
          "name": "user",
          "type": "address"
        },
        {
          "indexed": false,
          "internalType": "bool",
          "name": "_newStatus",
          "type": "bool"
        },
        {
          "indexed": false,
          "internalType": "bool",
          "name": "_oldStatus",
          "type": "bool"
        }
      ],
      "name": "StatusChanged",
      "type": "event"
    },
    {
      "anonymous": false,
      "inputs": [
        {
          "indexed": true,
          "internalType": "address",
          "name": "user",
          "type": "address"
        },
        {
          "indexed": false,
          "internalType": "uint256",
          "name": "_price",
          "type": "uint256"
        }
      ],
      "name": "Subscribed",
      "type": "event"
    },
    {
      "inputs": [
        {
          "internalType": "address",
          "name": "",
          "type": "address"
        }
      ],
      "name": "_subscribed",
      "outputs": [
        {
          "internalType": "bool",
          "name": "",
          "type": "bool"
        }
      ],
      "stateMutability": "view",
      "type": "function"
    },
    {
      "inputs": [],
      "name": "owner",
      "outputs": [
        {
          "internalType": "address",
          "name": "",
          "type": "address"
        }
      ],
      "stateMutability": "view",
      "type": "function"
    },
    {
      "inputs": [],
      "name": "renounceOwnership",
      "outputs": [],
      "stateMutability": "nonpayable",
      "type": "function"
    },
    {
      "inputs": [
        {
          "internalType": "address",
          "name": "",
          "type": "address"
        }
      ],
      "name": "subscription",
      "outputs": [
        {
          "internalType": "uint256",
          "name": "price",
          "type": "uint256"
        },
        {
          "internalType": "address",
          "name": "mainAcct",
          "type": "address"
        },
        {
          "internalType": "bool",
          "name": "ownedPreviousMembership",
          "type": "bool"
        },
        {
          "internalType": "bool",
          "name": "isExpired",
          "type": "bool"
        }
      ],
      "stateMutability": "view",
      "type": "function"
    },
    {
      "inputs": [
        {
          "internalType": "address",
          "name": "newOwner",
          "type": "address"
        }
      ],
      "name": "transferOwnership",
      "outputs": [],
      "stateMutability": "nonpayable",
      "type": "function"
    },
    {
      "inputs": [],
      "name": "getSubscriptionInfo",
      "outputs": [
        {
          "components": [
            {
              "internalType": "uint256",
              "name": "price",
              "type": "uint256"
            },
            {
              "internalType": "uint256",
              "name": "timeframe",
              "type": "uint256"
            },
            {
              "internalType": "uint256",
              "name": "addOnAcctPrice",
              "type": "uint256"
            },
            {
              "internalType": "uint256",
              "name": "subscribers",
              "type": "uint256"
            },
            {
              "internalType": "uint256",
              "name": "cancellations",
              "type": "uint256"
            },
            {
              "internalType": "string",
              "name": "name",
              "type": "string"
            }
          ],
          "internalType": "struct Subscription.SubscriptionData",
          "name": "",
          "type": "tuple"
        }
      ],
      "stateMutability": "view",
      "type": "function"
    },
    {
      "inputs": [],
      "name": "getSubscribers",
      "outputs": [
        {
          "internalType": "uint256",
          "name": "",
          "type": "uint256"
        }
      ],
      "stateMutability": "view",
      "type": "function"
    },
    {
      "inputs": [],
      "name": "getCancellations",
      "outputs": [
        {
          "internalType": "uint256",
          "name": "",
          "type": "uint256"
        }
      ],
      "stateMutability": "view",
      "type": "function"
    },
    {
      "inputs": [],
      "name": "subscribe",
      "outputs": [],
      "stateMutability": "payable",
      "type": "function"
    },
    {
      "inputs": [],
      "name": "cancel",
      "outputs": [],
      "stateMutability": "nonpayable",
      "type": "function"
    },
    {
      "inputs": [],
      "name": "deleteMembership",
      "outputs": [],
      "stateMutability": "nonpayable",
      "type": "function"
    },
    {
      "inputs": [
        {
          "internalType": "uint256",
          "name": "_setPrice",
          "type": "uint256"
        }
      ],
      "name": "changePrice",
      "outputs": [],
      "stateMutability": "nonpayable",
      "type": "function"
    },
    {
      "inputs": [
        {
          "internalType": "address",
          "name": "_sendApprovalTo",
          "type": "address"
        }
      ],
      "name": "sendNonFractionalizedInvitation",
      "outputs": [],
      "stateMutability": "nonpayable",
      "type": "function"
    },
    {
      "inputs": [
        {
          "internalType": "address",
          "name": "_sendApprovalTo",
          "type": "address"
        }
      ],
      "name": "sendFractionalizedInvitation",
      "outputs": [],
      "stateMutability": "nonpayable",
      "type": "function"
    },
    {
      "inputs": [
        {
          "internalType": "uint256",
          "name": "_id",
          "type": "uint256"
        },
        {
          "internalType": "enum Subscription.ApprovalType",
          "name": "_approvalType",
          "type": "uint8"
        }
      ],
      "name": "confirmApproval",
      "outputs": [],
      "stateMutability": "nonpayable",
      "type": "function"
    },
    {
      "inputs": [
        {
          "internalType": "uint256",
          "name": "_id",
          "type": "uint256"
        }
      ],
      "name": "rejectInvitation",
      "outputs": [],
      "stateMutability": "nonpayable",
      "type": "function"
    },
    {
      "inputs": [
        {
          "internalType": "address",
          "name": "_splitAcct",
          "type": "address"
        },
        {
          "internalType": "uint256",
          "name": "_id",
          "type": "uint256"
        }
      ],
      "name": "addSplitAcct",
      "outputs": [],
      "stateMutability": "nonpayable",
      "type": "function"
    },
    {
      "inputs": [
        {
          "internalType": "address",
          "name": "_subAcct",
          "type": "address"
        },
        {
          "internalType": "uint256",
          "name": "_id",
          "type": "uint256"
        }
      ],
      "name": "addSubAcct",
      "outputs": [],
      "stateMutability": "nonpayable",
      "type": "function"
    },
    {
      "inputs": [],
      "name": "renew",
      "outputs": [],
      "stateMutability": "view",
      "type": "function"
    }
  ],
  "bytecode": "0x608060405234801562000010575f80fd5b50604051620041f4380380620041f48339818101604052810190620000369190620003d0565b335f73ffffffffffffffffffffffffffffffffffffffff168173ffffffffffffffffffffffffffffffffffffffff1603620000aa575f6040517f1e4fbdf7000000000000000000000000000000000000000000000000000000008152600401620000a191906200048b565b60405180910390fd5b620000bb816200015260201b60201c565b506040518060c001604052808381526020018242620000db9190620004d3565b81526020016003548152602001600654815260200160075481526020018481525060095f820151815f01556020820151816001015560408201518160020155606082015181600301556080820151816004015560a08201518160050190816200014591906200073b565b509050505050506200081f565b5f805f9054906101000a900473ffffffffffffffffffffffffffffffffffffffff169050815f806101000a81548173ffffffffffffffffffffffffffffffffffffffff021916908373ffffffffffffffffffffffffffffffffffffffff1602179055508173ffffffffffffffffffffffffffffffffffffffff168173ffffffffffffffffffffffffffffffffffffffff167f8be0079c531659141344cd1fd0a4f28419497f9722a3daafe3b4186f6b6457e060405160405180910390a35050565b5f604051905090565b5f80fd5b5f80fd5b5f80fd5b5f80fd5b5f601f19601f8301169050919050565b7f4e487b71000000000000000000000000000000000000000000000000000000005f52604160045260245ffd5b62000274826200022c565b810181811067ffffffffffffffff821117156200029657620002956200023c565b5b80604052505050565b5f620002aa62000213565b9050620002b8828262000269565b919050565b5f67ffffffffffffffff821115620002da57620002d96200023c565b5b620002e5826200022c565b9050602081019050919050565b5f5b8381101562000311578082015181840152602081019050620002f4565b5f8484015250505050565b5f620003326200032c84620002bd565b6200029f565b90508281526020810184848401111562000351576200035062000228565b5b6200035e848285620002f2565b509392505050565b5f82601f8301126200037d576200037c62000224565b5b81516200038f8482602086016200031c565b91505092915050565b5f819050919050565b620003ac8162000398565b8114620003b7575f80fd5b50565b5f81519050620003ca81620003a1565b92915050565b5f805f60608486031215620003ea57620003e96200021c565b5b5f84015167ffffffffffffffff8111156200040a576200040962000220565b5b620004188682870162000366565b93505060206200042b86828701620003ba565b92505060406200043e86828701620003ba565b9150509250925092565b5f73ffffffffffffffffffffffffffffffffffffffff82169050919050565b5f620004738262000448565b9050919050565b620004858162000467565b82525050565b5f602082019050620004a05f8301846200047a565b92915050565b7f4e487b71000000000000000000000000000000000000000000000000000000005f52601160045260245ffd5b5f620004df8262000398565b9150620004ec8362000398565b9250828201905080821115620005075762000506620004a6565b5b92915050565b5f81519050919050565b7f4e487b71000000000000000000000000000000000000000000000000000000005f52602260045260245ffd5b5f60028204905060018216806200055c57607f821691505b60208210810362000572576200057162000517565b5b50919050565b5f819050815f5260205f209050919050565b5f6020601f8301049050919050565b5f82821b905092915050565b5f60088302620005d67fffffffffffffffffffffffffffffffffffffffffffffffffffffffffffffffff8262000599565b620005e2868362000599565b95508019841693508086168417925050509392505050565b5f819050919050565b5f620006236200061d620006178462000398565b620005fa565b62000398565b9050919050565b5f819050919050565b6200063e8362000603565b620006566200064d826200062a565b848454620005a5565b825550505050565b5f90565b6200066c6200065e565b6200067981848462000633565b505050565b5b81811015620006a057620006945f8262000662565b6001810190506200067f565b5050565b601f821115620006ef57620006b98162000578565b620006c4846200058a565b81016020851015620006d4578190505b620006ec620006e3856200058a565b8301826200067e565b50505b505050565b5f82821c905092915050565b5f620007115f1984600802620006f4565b1980831691505092915050565b5f6200072b838362000700565b9150826002028217905092915050565b62000746826200050d565b67ffffffffffffffff8111156200076257620007616200023c565b5b6200076e825462000544565b6200077b828285620006a4565b5f60209050601f831160018114620007b1575f84156200079c578287015190505b620007a885826200071e565b86555062000817565b601f198416620007c18662000578565b5f5b82811015620007ea57848901518255600182019150602085019450602081019050620007c3565b868310156200080a578489015162000806601f89168262000700565b8355505b6001600288020188555050505b505050505050565b6139c7806200082d5f395ff3fe608060405260043610610113575f3560e01c80638f449a051161009f578063d3449f6011610063578063d3449f6014610326578063e99689391461034e578063ea8a1af014610376578063f2fde38b1461038c578063fdedf876146103b457610113565b80638f449a051461028c57806397fa657014610296578063a1357f19146102ac578063a2b40d19146102d4578063cdd2efd0146102fc57610113565b80635aa6bb3b116100e65780635aa6bb3b146101d25780636888ecc4146101fa578063715018a614610224578063783c8e8d1461023a5780638da5cb5b1461026257610113565b806305cc61ad146101175780630d932e70146101415780631c7925aa146101575780634ef47cf114610193575b5f80fd5b348015610122575f80fd5b5061012b6103dc565b6040516101389190612d6a565b60405180910390f35b34801561014c575f80fd5b506101556103e8565b005b348015610162575f80fd5b5061017d60048036038101906101789190612de1565b6105bc565b60405161018a9190612e26565b60405180910390f35b34801561019e575f80fd5b506101b960048036038101906101b49190612de1565b6105d9565b6040516101c99493929190612e4e565b60405180910390f35b3480156101dd575f80fd5b506101f860048036038101906101f39190612ebb565b61063d565b005b348015610205575f80fd5b5061020e610820565b60405161021b9190612d6a565b60405180910390f35b34801561022f575f80fd5b5061023861082c565b005b348015610245575f80fd5b50610260600480360381019061025b9190612de1565b61083f565b005b34801561026d575f80fd5b50610276610dfa565b6040516102839190612ee6565b60405180910390f35b610294610e21565b005b3480156102a1575f80fd5b506102aa6111cb565b005b3480156102b7575f80fd5b506102d260048036038101906102cd9190612de1565b6114f1565b005b3480156102df575f80fd5b506102fa60048036038101906102f59190612ebb565b611ab0565b005b348015610307575f80fd5b50610310611b10565b60405161031d919061301e565b60405180910390f35b348015610331575f80fd5b5061034c6004803603810190610347919061303e565b611beb565b005b348015610359575f80fd5b50610374600480360381019061036f919061303e565b612084565b005b348015610381575f80fd5b5061038a61251e565b005b348015610397575f80fd5b506103b260048036038101906103ad9190612de1565b6128d8565b005b3480156103bf575f80fd5b506103da60048036038101906103d5919061309f565b61295c565b005b5f600960030154905090565b3373ffffffffffffffffffffffffffffffffffffffff16610407610dfa565b73ffffffffffffffffffffffffffffffffffffffff160361045d576040517f08c379a00000000000000000000000000000000000000000000000000000000081526004016104549061315d565b60405180910390fd5b60105f3373ffffffffffffffffffffffffffffffffffffffff1673ffffffffffffffffffffffffffffffffffffffff1681526020019081526020015f206001015f9054906101000a900473ffffffffffffffffffffffffffffffffffffffff1673ffffffffffffffffffffffffffffffffffffffff163373ffffffffffffffffffffffffffffffffffffffff161461052a576040517f08c379a0000000000000000000000000000000000000000000000000000000008152600401610521906131eb565b60405180910390fd5b60011515600f5f3373ffffffffffffffffffffffffffffffffffffffff1673ffffffffffffffffffffffffffffffffffffffff1681526020019081526020015f205f9054906101000a900460ff161515146105ba576040517f08c379a00000000000000000000000000000000000000000000000000000000081526004016105b190613279565b60405180910390fd5b565b600f602052805f5260405f205f915054906101000a900460ff1681565b6010602052805f5260405f205f91509050805f015490806001015f9054906101000a900473ffffffffffffffffffffffffffffffffffffffff1690806004015f9054906101000a900460ff16908060040160019054906101000a900460ff16905084565b3373ffffffffffffffffffffffffffffffffffffffff1661065c610dfa565b73ffffffffffffffffffffffffffffffffffffffff16036106b2576040517f08c379a00000000000000000000000000000000000000000000000000000000081526004016106a990613307565b60405180910390fd5b3373ffffffffffffffffffffffffffffffffffffffff1660115f8381526020019081526020015f206001015f9054906101000a900473ffffffffffffffffffffffffffffffffffffffff1673ffffffffffffffffffffffffffffffffffffffff1614610753576040517f08c379a000000000000000000000000000000000000000000000000000000000815260040161074a90613395565b60405180910390fd5b60115f8281526020019081526020015f205f8082015f6101000a81549073ffffffffffffffffffffffffffffffffffffffff0219169055600182015f6101000a81549073ffffffffffffffffffffffffffffffffffffffff02191690556001820160146101000a81549060ff02191690556001820160156101000a81549060ff021916905550503373ffffffffffffffffffffffffffffffffffffffff167fe1d35d05be9eb894a2233eceb57856765921d1afa6e5fdc5d01a039e9ee83cb360405160405180910390a250565b5f600960040154905090565b610834612ae4565b61083d5f612b6b565b565b3373ffffffffffffffffffffffffffffffffffffffff1661085e610dfa565b73ffffffffffffffffffffffffffffffffffffffff16036108b4576040517f08c379a00000000000000000000000000000000000000000000000000000000081526004016108ab9061315d565b60405180910390fd5b60105f3373ffffffffffffffffffffffffffffffffffffffff1673ffffffffffffffffffffffffffffffffffffffff1681526020019081526020015f206001015f9054906101000a900473ffffffffffffffffffffffffffffffffffffffff1673ffffffffffffffffffffffffffffffffffffffff163373ffffffffffffffffffffffffffffffffffffffff1614610981576040517f08c379a0000000000000000000000000000000000000000000000000000000008152600401610978906131eb565b60405180910390fd5b60011515600f5f3373ffffffffffffffffffffffffffffffffffffffff1673ffffffffffffffffffffffffffffffffffffffff1681526020019081526020015f205f9054906101000a900460ff16151514610a11576040517f08c379a0000000000000000000000000000000000000000000000000000000008152600401610a0890613279565b60405180910390fd5b5f60105f3373ffffffffffffffffffffffffffffffffffffffff1673ffffffffffffffffffffffffffffffffffffffff1681526020019081526020015f209050600960010154421015610a7c5760018160040160016101000a81548160ff0219169083151502179055505b5f15158160040160019054906101000a900460ff16151514610ad3576040517f08c379a0000000000000000000000000000000000000000000000000000000008152600401610aca906133fd565b60405180910390fd5b815f1515600f5f8373ffffffffffffffffffffffffffffffffffffffff1673ffffffffffffffffffffffffffffffffffffffff1681526020019081526020015f205f9054906101000a900460ff16151514610b63576040517f08c379a0000000000000000000000000000000000000000000000000000000008152600401610b5a90613465565b60405180910390fd5b5f151560125f8573ffffffffffffffffffffffffffffffffffffffff1673ffffffffffffffffffffffffffffffffffffffff1681526020019081526020015f205f9054906101000a900460ff16151514610bf2576040517f08c379a0000000000000000000000000000000000000000000000000000000008152600401610be9906134cd565b60405180910390fd5b5f8060405180608001604052803373ffffffffffffffffffffffffffffffffffffffff1681526020018673ffffffffffffffffffffffffffffffffffffffff168152602001600115158152602001836001811115610c5357610c526134eb565b5b81525090508060115f60085481526020019081526020015f205f820151815f015f6101000a81548173ffffffffffffffffffffffffffffffffffffffff021916908373ffffffffffffffffffffffffffffffffffffffff1602179055506020820151816001015f6101000a81548173ffffffffffffffffffffffffffffffffffffffff021916908373ffffffffffffffffffffffffffffffffffffffff16021790555060408201518160010160146101000a81548160ff02191690831515021790555060608201518160010160156101000a81548160ff02191690836001811115610d4157610d406134eb565b5b021790555090505060085f815480929190610d5b90613545565b9190505550600160125f8773ffffffffffffffffffffffffffffffffffffffff1673ffffffffffffffffffffffffffffffffffffffff1681526020019081526020015f205f6101000a81548160ff0219169083151502179055506008547ffab529d6c29cb396e9a4a91a902fbc0c82f1959c6a0f14995296e55898fc7e01338785604051610deb939291906135d2565b60405180910390a25050505050565b5f805f9054906101000a900473ffffffffffffffffffffffffffffffffffffffff16905090565b3373ffffffffffffffffffffffffffffffffffffffff16610e40610dfa565b73ffffffffffffffffffffffffffffffffffffffff1603610e96576040517f08c379a0000000000000000000000000000000000000000000000000000000008152600401610e8d90613651565b60405180910390fd5b5f1515600f5f3373ffffffffffffffffffffffffffffffffffffffff1673ffffffffffffffffffffffffffffffffffffffff1681526020019081526020015f205f9054906101000a900460ff16151514610f25576040517f08c379a0000000000000000000000000000000000000000000000000000000008152600401610f1c906136b9565b60405180910390fd5b5f151560105f3373ffffffffffffffffffffffffffffffffffffffff1673ffffffffffffffffffffffffffffffffffffffff1681526020019081526020015f206004015f9054906101000a900460ff1615150361119457610f84612c33565b33816020019073ffffffffffffffffffffffffffffffffffffffff16908173ffffffffffffffffffffffffffffffffffffffff1681525050600254815f0181815250508060105f3373ffffffffffffffffffffffffffffffffffffffff1673ffffffffffffffffffffffffffffffffffffffff1681526020019081526020015f205f820151815f01556020820151816001015f6101000a81548173ffffffffffffffffffffffffffffffffffffffff021916908373ffffffffffffffffffffffffffffffffffffffff160217905550604082015181600201908051906020019061106f929190612c7f565b50606082015181600301908051906020019061108c929190612c7f565b506080820151816004015f6101000a81548160ff02191690831515021790555060a08201518160040160016101000a81548160ff0219169083151502179055509050506001600f5f3373ffffffffffffffffffffffffffffffffffffffff1673ffffffffffffffffffffffffffffffffffffffff1681526020019081526020015f205f6101000a81548160ff02191690831515021790555060096003015f81548092919061113990613545565b91905055503373ffffffffffffffffffffffffffffffffffffffff167f4b90d6788928d63c1821907a6a8b95f40d26562d8fe41b105f7489db9966dfcb6002546040516111869190612d6a565b60405180910390a2506111c9565b60096004015f8154809291906111a9906136d7565b919050555060096003015f8154809291906111c390613545565b91905055505b565b3373ffffffffffffffffffffffffffffffffffffffff166111ea610dfa565b73ffffffffffffffffffffffffffffffffffffffff1603611240576040517f08c379a00000000000000000000000000000000000000000000000000000000081526004016112379061315d565b60405180910390fd5b60105f3373ffffffffffffffffffffffffffffffffffffffff1673ffffffffffffffffffffffffffffffffffffffff1681526020019081526020015f206001015f9054906101000a900473ffffffffffffffffffffffffffffffffffffffff1673ffffffffffffffffffffffffffffffffffffffff163373ffffffffffffffffffffffffffffffffffffffff161461130d576040517f08c379a0000000000000000000000000000000000000000000000000000000008152600401611304906131eb565b60405180910390fd5b60011515600f5f3373ffffffffffffffffffffffffffffffffffffffff1673ffffffffffffffffffffffffffffffffffffffff1681526020019081526020015f205f9054906101000a900460ff1615151461139d576040517f08c379a000000000000000000000000000000000000000000000000000000000815260040161139490613279565b60405180910390fd5b5f60105f3373ffffffffffffffffffffffffffffffffffffffff1673ffffffffffffffffffffffffffffffffffffffff1681526020019081526020015f2090506009600101544210156114085760018160040160016101000a81548160ff0219169083151502179055505b5f15158160040160019054906101000a900460ff1615151461145f576040517f08c379a0000000000000000000000000000000000000000000000000000000008152600401611456906133fd565b60405180910390fd5b600f5f3373ffffffffffffffffffffffffffffffffffffffff1673ffffffffffffffffffffffffffffffffffffffff1681526020019081526020015f205f6101000a81549060ff02191690553373ffffffffffffffffffffffffffffffffffffffff167f05058cc32e8ad9bfc0c20a4da79d896e52758d35a9396490db36fc8e0add77e960405160405180910390a250565b3373ffffffffffffffffffffffffffffffffffffffff16611510610dfa565b73ffffffffffffffffffffffffffffffffffffffff1603611566576040517f08c379a000000000000000000000000000000000000000000000000000000000815260040161155d9061315d565b60405180910390fd5b60105f3373ffffffffffffffffffffffffffffffffffffffff1673ffffffffffffffffffffffffffffffffffffffff1681526020019081526020015f206001015f9054906101000a900473ffffffffffffffffffffffffffffffffffffffff1673ffffffffffffffffffffffffffffffffffffffff163373ffffffffffffffffffffffffffffffffffffffff1614611633576040517f08c379a000000000000000000000000000000000000000000000000000000000815260040161162a906131eb565b60405180910390fd5b60011515600f5f3373ffffffffffffffffffffffffffffffffffffffff1673ffffffffffffffffffffffffffffffffffffffff1681526020019081526020015f205f9054906101000a900460ff161515146116c3576040517f08c379a00000000000000000000000000000000000000000000000000000000081526004016116ba90613279565b60405180910390fd5b5f60105f3373ffffffffffffffffffffffffffffffffffffffff1673ffffffffffffffffffffffffffffffffffffffff1681526020019081526020015f20905060096001015442101561172e5760018160040160016101000a81548160ff0219169083151502179055505b5f15158160040160019054906101000a900460ff16151514611785576040517f08c379a000000000000000000000000000000000000000000000000000000000815260040161177c906133fd565b60405180910390fd5b815f1515600f5f8373ffffffffffffffffffffffffffffffffffffffff1673ffffffffffffffffffffffffffffffffffffffff1681526020019081526020015f205f9054906101000a900460ff16151514611815576040517f08c379a000000000000000000000000000000000000000000000000000000000815260040161180c90613465565b60405180910390fd5b5f151560125f8573ffffffffffffffffffffffffffffffffffffffff1673ffffffffffffffffffffffffffffffffffffffff1681526020019081526020015f205f9054906101000a900460ff161515146118a4576040517f08c379a000000000000000000000000000000000000000000000000000000000815260040161189b9061376e565b60405180910390fd5b5f600190505f60405180608001604052803373ffffffffffffffffffffffffffffffffffffffff1681526020018673ffffffffffffffffffffffffffffffffffffffff168152602001600115158152602001836001811115611909576119086134eb565b5b81525090508060115f60085481526020019081526020015f205f820151815f015f6101000a81548173ffffffffffffffffffffffffffffffffffffffff021916908373ffffffffffffffffffffffffffffffffffffffff1602179055506020820151816001015f6101000a81548173ffffffffffffffffffffffffffffffffffffffff021916908373ffffffffffffffffffffffffffffffffffffffff16021790555060408201518160010160146101000a81548160ff02191690831515021790555060608201518160010160156101000a81548160ff021916908360018111156119f7576119f66134eb565b5b021790555090505060085f815480929190611a1190613545565b9190505550600160125f8773ffffffffffffffffffffffffffffffffffffffff1673ffffffffffffffffffffffffffffffffffffffff1681526020019081526020015f205f6101000a81548160ff0219169083151502179055506008547ffab529d6c29cb396e9a4a91a902fbc0c82f1959c6a0f14995296e55898fc7e01338785604051611aa1939291906135d2565b60405180910390a25050505050565b611ab8612ae4565b806002819055506001604051611ace9190613885565b60405180910390207f3be527d7a21a1845ed037cf49572fc00ee8bb81fcdaf3328d42b1aaace473b9382604051611b059190612d6a565b60405180910390a250565b611b18612d06565b60096040518060c00160405290815f820154815260200160018201548152602001600282015481526020016003820154815260200160048201548152602001600582018054611b66906137b9565b80601f0160208091040260200160405190810160405280929190818152602001828054611b92906137b9565b8015611bdd5780601f10611bb457610100808354040283529160200191611bdd565b820191905f5260205f20905b815481529060010190602001808311611bc057829003601f168201915b505050505081525050905090565b3373ffffffffffffffffffffffffffffffffffffffff16611c0a610dfa565b73ffffffffffffffffffffffffffffffffffffffff1603611c60576040517f08c379a0000000000000000000000000000000000000000000000000000000008152600401611c579061315d565b60405180910390fd5b60105f3373ffffffffffffffffffffffffffffffffffffffff1673ffffffffffffffffffffffffffffffffffffffff1681526020019081526020015f206001015f9054906101000a900473ffffffffffffffffffffffffffffffffffffffff1673ffffffffffffffffffffffffffffffffffffffff163373ffffffffffffffffffffffffffffffffffffffff1614611d2d576040517f08c379a0000000000000000000000000000000000000000000000000000000008152600401611d24906131eb565b60405180910390fd5b60011515600f5f3373ffffffffffffffffffffffffffffffffffffffff1673ffffffffffffffffffffffffffffffffffffffff1681526020019081526020015f205f9054906101000a900460ff16151514611dbd576040517f08c379a0000000000000000000000000000000000000000000000000000000008152600401611db490613279565b60405180910390fd5b5f60105f3373ffffffffffffffffffffffffffffffffffffffff1673ffffffffffffffffffffffffffffffffffffffff1681526020019081526020015f209050600960010154421015611e285760018160040160016101000a81548160ff0219169083151502179055505b5f15158160040160019054906101000a900460ff16151514611e7f576040517f08c379a0000000000000000000000000000000000000000000000000000000008152600401611e76906133fd565b60405180910390fd5b815f8060115f8481526020019081526020015f2090503373ffffffffffffffffffffffffffffffffffffffff16611eb4610dfa565b73ffffffffffffffffffffffffffffffffffffffff1603611f0a576040517f08c379a0000000000000000000000000000000000000000000000000000000008152600401611f019061315d565b60405180910390fd5b816001811115611f1d57611f1c6134eb565b5b8160010160159054906101000a900460ff166001811115611f4157611f406134eb565b5b14611f81576040517f08c379a0000000000000000000000000000000000000000000000000000000008152600401611f78906138e5565b60405180910390fd5b600115158160010160149054906101000a900460ff16151514611fd9576040517f08c379a0000000000000000000000000000000000000000000000000000000008152600401611fd090613973565b60405180910390fd5b5f60105f3373ffffffffffffffffffffffffffffffffffffffff1673ffffffffffffffffffffffffffffffffffffffff1681526020019081526020015f2090508060030187908060018154018082558091505060019003905f5260205f20015f9091909190916101000a81548173ffffffffffffffffffffffffffffffffffffffff021916908373ffffffffffffffffffffffffffffffffffffffff16021790555050505050505050565b3373ffffffffffffffffffffffffffffffffffffffff166120a3610dfa565b73ffffffffffffffffffffffffffffffffffffffff16036120f9576040517f08c379a00000000000000000000000000000000000000000000000000000000081526004016120f09061315d565b60405180910390fd5b60105f3373ffffffffffffffffffffffffffffffffffffffff1673ffffffffffffffffffffffffffffffffffffffff1681526020019081526020015f206001015f9054906101000a900473ffffffffffffffffffffffffffffffffffffffff1673ffffffffffffffffffffffffffffffffffffffff163373ffffffffffffffffffffffffffffffffffffffff16146121c6576040517f08c379a00000000000000000000000000000000000000000000000000000000081526004016121bd906131eb565b60405180910390fd5b60011515600f5f3373ffffffffffffffffffffffffffffffffffffffff1673ffffffffffffffffffffffffffffffffffffffff1681526020019081526020015f205f9054906101000a900460ff16151514612256576040517f08c379a000000000000000000000000000000000000000000000000000000000815260040161224d90613279565b60405180910390fd5b5f60105f3373ffffffffffffffffffffffffffffffffffffffff1673ffffffffffffffffffffffffffffffffffffffff1681526020019081526020015f2090506009600101544210156122c15760018160040160016101000a81548160ff0219169083151502179055505b5f15158160040160019054906101000a900460ff16151514612318576040517f08c379a000000000000000000000000000000000000000000000000000000000815260040161230f906133fd565b60405180910390fd5b8160015f60115f8481526020019081526020015f2090503373ffffffffffffffffffffffffffffffffffffffff1661234e610dfa565b73ffffffffffffffffffffffffffffffffffffffff16036123a4576040517f08c379a000000000000000000000000000000000000000000000000000000000815260040161239b9061315d565b60405180910390fd5b8160018111156123b7576123b66134eb565b5b8160010160159054906101000a900460ff1660018111156123db576123da6134eb565b5b1461241b576040517f08c379a0000000000000000000000000000000000000000000000000000000008152600401612412906138e5565b60405180910390fd5b600115158160010160149054906101000a900460ff16151514612473576040517f08c379a000000000000000000000000000000000000000000000000000000000815260040161246a90613973565b60405180910390fd5b5f60105f3373ffffffffffffffffffffffffffffffffffffffff1673ffffffffffffffffffffffffffffffffffffffff1681526020019081526020015f2090508060020187908060018154018082558091505060019003905f5260205f20015f9091909190916101000a81548173ffffffffffffffffffffffffffffffffffffffff021916908373ffffffffffffffffffffffffffffffffffffffff16021790555050505050505050565b3373ffffffffffffffffffffffffffffffffffffffff1661253d610dfa565b73ffffffffffffffffffffffffffffffffffffffff1603612593576040517f08c379a000000000000000000000000000000000000000000000000000000000815260040161258a9061315d565b60405180910390fd5b60105f3373ffffffffffffffffffffffffffffffffffffffff1673ffffffffffffffffffffffffffffffffffffffff1681526020019081526020015f206001015f9054906101000a900473ffffffffffffffffffffffffffffffffffffffff1673ffffffffffffffffffffffffffffffffffffffff163373ffffffffffffffffffffffffffffffffffffffff1614612660576040517f08c379a0000000000000000000000000000000000000000000000000000000008152600401612657906131eb565b60405180910390fd5b60011515600f5f3373ffffffffffffffffffffffffffffffffffffffff1673ffffffffffffffffffffffffffffffffffffffff1681526020019081526020015f205f9054906101000a900460ff161515146126f0576040517f08c379a00000000000000000000000000000000000000000000000000000000081526004016126e790613279565b60405180910390fd5b5f60105f3373ffffffffffffffffffffffffffffffffffffffff1673ffffffffffffffffffffffffffffffffffffffff1681526020019081526020015f20905060096001015442101561275b5760018160040160016101000a81548160ff0219169083151502179055505b5f15158160040160019054906101000a900460ff161515146127b2576040517f08c379a00000000000000000000000000000000000000000000000000000000081526004016127a9906133fd565b60405180910390fd5b5f600f5f3373ffffffffffffffffffffffffffffffffffffffff1673ffffffffffffffffffffffffffffffffffffffff1681526020019081526020015f205f6101000a81548160ff021916908315150217905550600160105f3373ffffffffffffffffffffffffffffffffffffffff1673ffffffffffffffffffffffffffffffffffffffff1681526020019081526020015f206004015f6101000a81548160ff02191690831515021790555060096004015f81548092919061287390613545565b919050555060096003015f81548092919061288d906136d7565b91905055503373ffffffffffffffffffffffffffffffffffffffff167fe38a305dd87f383d2b30acd2011373a35aee3d5f803c50aa8cad332fca97811960405160405180910390a250565b6128e0612ae4565b5f73ffffffffffffffffffffffffffffffffffffffff168173ffffffffffffffffffffffffffffffffffffffff1603612950575f6040517f1e4fbdf70000000000000000000000000000000000000000000000000000000081526004016129479190612ee6565b60405180910390fd5b61295981612b6b565b50565b3373ffffffffffffffffffffffffffffffffffffffff1660115f8481526020019081526020015f206001015f9054906101000a900473ffffffffffffffffffffffffffffffffffffffff1673ffffffffffffffffffffffffffffffffffffffff16146129fd576040517f08c379a00000000000000000000000000000000000000000000000000000000081526004016129f490613395565b60405180910390fd5b5f6001811115612a1057612a0f6134eb565b5b816001811115612a2357612a226134eb565b5b03612a70573373ffffffffffffffffffffffffffffffffffffffff167fe07787561920c3cfbc651667846dbaeb5968804b522d91bc380da9bfc7c02f0160405160405180910390a2612ae0565b600180811115612a8357612a826134eb565b5b816001811115612a9657612a956134eb565b5b03612adf573373ffffffffffffffffffffffffffffffffffffffff167fcc4db49202dfbea28a66fa1454019e55a246b94563b752fda2f7499da6ce6eaa60405160405180910390a25b5b5050565b612aec612c2c565b73ffffffffffffffffffffffffffffffffffffffff16612b0a610dfa565b73ffffffffffffffffffffffffffffffffffffffff1614612b6957612b2d612c2c565b6040517f118cdaa7000000000000000000000000000000000000000000000000000000008152600401612b609190612ee6565b60405180910390fd5b565b5f805f9054906101000a900473ffffffffffffffffffffffffffffffffffffffff169050815f806101000a81548173ffffffffffffffffffffffffffffffffffffffff021916908373ffffffffffffffffffffffffffffffffffffffff1602179055508173ffffffffffffffffffffffffffffffffffffffff168173ffffffffffffffffffffffffffffffffffffffff167f8be0079c531659141344cd1fd0a4f28419497f9722a3daafe3b4186f6b6457e060405160405180910390a35050565b5f33905090565b6040518060c001604052805f81526020015f73ffffffffffffffffffffffffffffffffffffffff16815260200160608152602001606081526020015f151581526020015f151581525090565b828054828255905f5260205f20908101928215612cf5579160200282015b82811115612cf4578251825f6101000a81548173ffffffffffffffffffffffffffffffffffffffff021916908373ffffffffffffffffffffffffffffffffffffffff16021790555091602001919060010190612c9d565b5b509050612d029190612d37565b5090565b6040518060c001604052805f81526020015f81526020015f81526020015f81526020015f8152602001606081525090565b5b80821115612d4e575f815f905550600101612d38565b5090565b5f819050919050565b612d6481612d52565b82525050565b5f602082019050612d7d5f830184612d5b565b92915050565b5f80fd5b5f73ffffffffffffffffffffffffffffffffffffffff82169050919050565b5f612db082612d87565b9050919050565b612dc081612da6565b8114612dca575f80fd5b50565b5f81359050612ddb81612db7565b92915050565b5f60208284031215612df657612df5612d83565b5b5f612e0384828501612dcd565b91505092915050565b5f8115159050919050565b612e2081612e0c565b82525050565b5f602082019050612e395f830184612e17565b92915050565b612e4881612da6565b82525050565b5f608082019050612e615f830187612d5b565b612e6e6020830186612e3f565b612e7b6040830185612e17565b612e886060830184612e17565b95945050505050565b612e9a81612d52565b8114612ea4575f80fd5b50565b5f81359050612eb581612e91565b92915050565b5f60208284031215612ed057612ecf612d83565b5b5f612edd84828501612ea7565b91505092915050565b5f602082019050612ef95f830184612e3f565b92915050565b612f0881612d52565b82525050565b5f81519050919050565b5f82825260208201905092915050565b5f5b83811015612f45578082015181840152602081019050612f2a565b5f8484015250505050565b5f601f19601f8301169050919050565b5f612f6a82612f0e565b612f748185612f18565b9350612f84818560208601612f28565b612f8d81612f50565b840191505092915050565b5f60c083015f830151612fad5f860182612eff565b506020830151612fc06020860182612eff565b506040830151612fd36040860182612eff565b506060830151612fe66060860182612eff565b506080830151612ff96080860182612eff565b5060a083015184820360a08601526130118282612f60565b9150508091505092915050565b5f6020820190508181035f8301526130368184612f98565b905092915050565b5f806040838503121561305457613053612d83565b5b5f61306185828601612dcd565b925050602061307285828601612ea7565b9150509250929050565b60028110613088575f80fd5b50565b5f813590506130998161307c565b92915050565b5f80604083850312156130b5576130b4612d83565b5b5f6130c285828601612ea7565b92505060206130d38582860161308b565b9150509250929050565b5f82825260208201905092915050565b7f546865206f776e6572206f66207468697320636f6e74726163742063616e6e6f5f8201527f7420706572666f726d207468697320616374696f6e0000000000000000000000602082015250565b5f6131476035836130dd565b9150613152826130ed565b604082019050919050565b5f6020820190508181035f8301526131748161313b565b9050919050565b7f4f6e6c7920746865206d61696e206163636f756e7420686f6c6465722063616e5f8201527f20657865637574652074686973206f7065726174696f6e000000000000000000602082015250565b5f6131d56037836130dd565b91506131e08261317b565b604082019050919050565b5f6020820190508181035f830152613202816131c9565b9050919050565b7f537562736372697074696f6e20646f65736e27742065786973742c206f7220695f8201527f7427732063616e63656c6c656400000000000000000000000000000000000000602082015250565b5f613263602d836130dd565b915061326e82613209565b604082019050919050565b5f6020820190508181035f83015261329081613257565b9050919050565b7f4f776e6572206f66207468697320636f6e74726163742063616e6e6f742070655f8201527f72666f726d207468697320616374696f6e000000000000000000000000000000602082015250565b5f6132f16031836130dd565b91506132fc82613297565b604082019050919050565b5f6020820190508181035f83015261331e816132e5565b9050919050565b7f4f6e6c7920616c6c6f77656420666f7220706f74656e7469616c2073756261635f8201527f636f756e7420686f6c6465727300000000000000000000000000000000000000602082015250565b5f61337f602d836130dd565b915061338a82613325565b604082019050919050565b5f6020820190508181035f8301526133ac81613373565b9050919050565b7f596f7572206d656d6265727368697020686173206578706972656400000000005f82015250565b5f6133e7601b836130dd565b91506133f2826133b3565b602082019050919050565b5f6020820190508181035f830152613414816133db565b9050919050565b7f596f7520616c7265616479206861766520616e206163636f756e7400000000005f82015250565b5f61344f601b836130dd565b915061345a8261341b565b602082019050919050565b5f6020820190508181035f83015261347c81613443565b9050919050565b7f596f7520616c72656164792073656e7420616e20617070726f76616c000000005f82015250565b5f6134b7601c836130dd565b91506134c282613483565b602082019050919050565b5f6020820190508181035f8301526134e4816134ab565b9050919050565b7f4e487b71000000000000000000000000000000000000000000000000000000005f52602160045260245ffd5b7f4e487b71000000000000000000000000000000000000000000000000000000005f52601160045260245ffd5b5f61354f82612d52565b91507fffffffffffffffffffffffffffffffffffffffffffffffffffffffffffffffff820361358157613580613518565b5b600182019050919050565b6002811061359d5761359c6134eb565b5b50565b5f8190506135ad8261358c565b919050565b5f6135bc826135a0565b9050919050565b6135cc816135b2565b82525050565b5f6060820190506135e55f830186612e3f565b6135f26020830185612e3f565b6135ff60408301846135c3565b949350505050565b7f596f752063616e6e6f7420706572666f726d207468697320616374696f6e00005f82015250565b5f61363b601e836130dd565b915061364682613607565b602082019050919050565b5f6020820190508181035f8301526136688161362f565b9050919050565b7f596f7520616c72656164792068617665206120737562736372697074696f6e005f82015250565b5f6136a3601f836130dd565b91506136ae8261366f565b602082019050919050565b5f6020820190508181035f8301526136d081613697565b9050919050565b5f6136e182612d52565b91505f82036136f3576136f2613518565b5b600182039050919050565b7f596f75207765726520616c72656164792073656e7420616e20617070726f76615f8201527f6c00000000000000000000000000000000000000000000000000000000000000602082015250565b5f6137586021836130dd565b9150613763826136fe565b604082019050919050565b5f6020820190508181035f8301526137858161374c565b9050919050565b7f4e487b71000000000000000000000000000000000000000000000000000000005f52602260045260245ffd5b5f60028204905060018216806137d057607f821691505b6020821081036137e3576137e261378c565b5b50919050565b5f81905092915050565b5f819050815f5260205f209050919050565b5f8154613811816137b9565b61381b81866137e9565b9450600182165f8114613835576001811461384a5761387c565b60ff198316865281151582028601935061387c565b613853856137f3565b5f5b8381101561387457815481890152600182019150602081019050613855565b838801955050505b50505092915050565b5f6138908284613805565b915081905092915050565b7f57726f6e6720417070726f76616c2054797065000000000000000000000000005f82015250565b5f6138cf6013836130dd565b91506138da8261389b565b602082019050919050565b5f6020820190508181035f8301526138fc816138c3565b9050919050565b7f506f74656e7469616c206163636f756e74206861736e277420617070726f76655f8201527f64207468656972206163636f756e740000000000000000000000000000000000602082015250565b5f61395d602f836130dd565b915061396882613903565b604082019050919050565b5f6020820190508181035f83015261398a81613951565b905091905056fea2646970667358221220b80ec72c08b57089cf6dcdb6fd3540bd1019ed5c84a92af11784f82d0b4eaef564736f6c63430008150033",
  "immutableReferences": {},
  "source": "// SPDX-License-Identifier: MIT\npragma solidity ^0.8.0; \n\n// Track User Subscriptions \n    // By Addr\n// Update Status on Subscripton\n    // Enums (Inactive, Active) \n// Cancel Subscription based on status\n// Allow users to be notified when a price changed happened on a subscription\n    // Create Events\n\n\n// Allow users to give rating on subscriptions????\n\n// I want this contract to be able to be used by other developers\n// to create their own subscriptions\n// One contract per Subscription EX: Netflix -> One Subscription\n\n// Subscription name and price is going to be set on initialization of the contract (EX: Netflix, $0.00) \n\n// Biggest Issue: \n// How do users know they are buying the correct subscription and not some scam?\n// I can verify that users are buying the correct subscription through message signature\n// Each transaction is signed with a private key, which in returns creates a signature hash\n// This signature hash can be used to verify the owner of sed subscription\n\n\n// Fracationlized Accounts, also called split accounts (splitAcct) represent a roomate to roomate behavior. \n// This means that you want to share the subscription, buy both will split the subscription payment between each other\n\n// NonFractionalized Accounts, also called sub accounts (subAcct) represents a parent adding a child to their membership\n// Meaning, they are considered add-ons, and can be set up to require a fee\n\nimport \"@openzeppelin/contracts/access/Ownable.sol\";\n\n/// @author Keshawn\n/// @title Subscription Project\n/// @custom:experimental This is an experimental contract.\n\ncontract Subscription is Ownable { \n\n    string internal name; \n    uint internal price; \n    uint internal addOnAcctPrice;\n    uint internal timeFrame; \n    string[] internal acceptedTokens;\n    uint private _subscribers; \n    uint private _cancellations; \n\n    uint private pendingId; \n\n    struct SubscriptionData {\n        uint price; \n        uint timeframe; \n        uint addOnAcctPrice;\n        uint subscribers; \n        uint cancellations;\n        string name;\n    }\n\n    SubscriptionData internal subscriptionData;\n\n    /// @notice Constructor Initiates Subscription Data Struct\n    /// @param _name, _price, _timeframe \n    /// @dev other paramters included default values set by the variables in the beginning \n    constructor(string memory _name, uint _price, uint _timeframe) Ownable(msg.sender) {\n       subscriptionData = SubscriptionData(\n        _price, \n        block.timestamp + _timeframe, \n        addOnAcctPrice, \n        _subscribers,\n         _cancellations, \n         _name\n        ); \n    }\n\n    struct Membership {\n        uint price; \n        address mainAcct; \n        address[] subAccts;\n        address[] splitAccts; \n        bool ownedPreviousMembership;\n        bool isExpired;\n    }\n\n    struct PendingApproval {\n        address from; \n        address to; \n        bool status; \n        ApprovalType _approvalType; \n    }\n    \n    /// @notice FractionalizedApproval stands for the user who are on the main holder's \n    /// @notice account, and they share the subscription (Fractionalized Ownership) \n    /// @notice NonFractionalApproval stands for users who are on the main holder's\n    /// @notice account, and they don't share the subscription (Non-Fractionalized Ownership)\n    enum ApprovalType {NonFractionalApproval, FractionalizedApproval}\n\n    event StatusChanged(address indexed user, bool _newStatus, bool _oldStatus);\n    event Subscribed(address indexed user, uint _price); \n    event CancelSubscription(address indexed user); \n    event DeleteMembership(address indexed user);\n    event PriceUpdate(string indexed _name, uint _price);\n    event SendApproval(uint indexed id, address from, address to, ApprovalType approvalType); \n    event ConfirmSubAcctApproval(address indexed potentialSubAcct); \n    event ConfirmSplitAcctApproval(address indexed potentialSubAcct);\n    event RejectApproval(address indexed potentialSubAcct); \n    \n    mapping(address => bool) public _subscribed; // Are they subscribed?\n    mapping(address => Membership) public subscription; // Represents Memberships\n    \n    mapping(uint id => PendingApproval) internal pendingApprovals; // Represents Pending Approvals\n    mapping(address sendTo => bool) internal sentApproval; // Has the approval been sent?\n\n    //mapping(address subaccount => address mainholder) //Are they a sub account? \n\n    /// @notice This modifier checks to see if the subscription is active by: \n    /// @notice 1. Makes sure the owner of the contract cannot perform certain functions\n    /// @notice 2. Makes sure only the main account holder can perform that certain function\n    /// @notice 3. Makes sure that person is subscribed\n    modifier isSubscriptionActive() {\n        require(owner() != msg.sender, \"The owner of this contract cannot perform this action\"); \n        require(msg.sender == subscription[msg.sender].mainAcct, \"Only the main account holder can execute this operation\"); //checks to see if you are the main acct holder\n        require(_subscribed[msg.sender] == true, \"Subscription doesn't exist, or it's cancelled\"); // checks to see if the subscription exist\n                \n        Membership storage _membership = subscription[msg.sender]; \n        if(block.timestamp < subscriptionData.timeframe) {\n           _membership.isExpired = true;  \n        }\n\n        require(_membership.isExpired == false, \"Your membership has expired\"); \n\n        _; \n    }\n\n    /// @notice This modifier checks to see if the pending approval has been approved by: \n    /// @notice 1. Makes sure the owner of the contract cannot perform this action \n    /// @notice 2. Makes sure the approval type is correct (Non-Fractional or Fractional) \n    /// @notice 3. Makes sure the approval has been approved\n    /// @param _id represents the id of the approval\n    modifier isApproved(uint _id, ApprovalType _approvalType) {\n        PendingApproval storage getApproval = pendingApprovals[_id]; \n        \n        require(owner() != msg.sender, \"The owner of this contract cannot perform this action\"); \n        require(getApproval._approvalType == _approvalType, \"Wrong Approval Type\"); \n        require(getApproval.status == true, \"Potential account hasn't approved their account\"); \n        _; \n    }\n\n    /// @notice This modifier checks to see if the potential account, which is a possible \n    /// @notice sub account user, already has their own subscription where they are the main holder\n    /// @param sendTo represents who the request is going to\n    modifier isPotentialAcctSubscribed(address sendTo) {\n        require(_subscribed[sendTo] == false, \"You already have an account\");\n        _; \n    }\n\n    /// @return Returns data about subscription \n    function getSubscriptionInfo() external view returns(SubscriptionData memory) {\n        return subscriptionData; \n    } \n\n    /// @return Returns the amount subscribers \n    function getSubscribers() external view returns(uint) {\n        return subscriptionData.subscribers; \n    }   \n\n    /// @return Return the amount of cancellations by previous subscribers\n    function getCancellations() external view returns(uint) {\n        return subscriptionData.cancellations; \n    }     \n\n    /// @notice Allows users to subscribe to the subscription \n    /// REMINDER: Make sure users have enough funds in their wallet\n    /// REMINDER: Make sure the function is made payable\n    function subscribe() public payable virtual {\n        require(owner() != msg.sender, \"You cannot perform this action\"); \n        require(_subscribed[msg.sender] == false, \"You already have a subscription\"); \n\n        if (subscription[msg.sender].ownedPreviousMembership == false){\n            Membership memory _member; \n            _member.mainAcct = msg.sender;  \n            _member.price = price; \n\n            subscription[msg.sender] = _member;  \n            _subscribed[msg.sender] = true;\n            subscriptionData.subscribers++;\n\n            emit Subscribed(msg.sender, price);\n        }\n\n        else {\n            subscriptionData.cancellations--;\n            subscriptionData.subscribers++; \n        }\n\n    } \n    \n    /// @notice Unsubscribes membership from subscription \n    /// @notice Tracks subscriptions and cancellations\n    function cancel() external isSubscriptionActive  {   \n        _subscribed[msg.sender] = false;\n        subscription[msg.sender].ownedPreviousMembership = true; \n        subscriptionData.cancellations++;\n        subscriptionData.subscribers--; \n\n        emit CancelSubscription(msg.sender);\n    }\n\n    /// @custom:removefunction I may remove this function \n    /// REMINDER: Test Functionality\n    function deleteMembership() external isSubscriptionActive  {\n        delete _subscribed[msg.sender]; \n        emit DeleteMembership(msg.sender);\n    }\n\n    /// @dev This function will only allow the owner of the contract to set the subscription price\n    /// @param _setPrice Sets a new price for the subscription \n    /// REMINDER: _setPrice cannot be lower than zero\n    function changePrice(uint _setPrice) external onlyOwner {\n        price = _setPrice;  \n        emit PriceUpdate(name, _setPrice);\n    }\n\n    /// @notice This function will send a non fractionalized approval to the potential subaccount \n    /// @param _sendApprovalTo Address of the potential subaccount holder (Non-Fractional)\n    function sendNonFractionalizedInvitation(address _sendApprovalTo) external virtual isSubscriptionActive isPotentialAcctSubscribed(_sendApprovalTo)  {\n        require(sentApproval[_sendApprovalTo] == false, \"You already sent an approval\");\n\n        ApprovalType approveType = ApprovalType.NonFractionalApproval;\n\n        PendingApproval memory _pendingapproval = PendingApproval({from: msg.sender, to: _sendApprovalTo, status: true, _approvalType: approveType });         \n        pendingApprovals[pendingId] = _pendingapproval; \n        pendingId++;\n\n        sentApproval[_sendApprovalTo] = true; \n                \n        emit SendApproval(pendingId, msg.sender, _sendApprovalTo, approveType); \n    }\n\n    /// @notice Ex: A roomate wants to add the roomate to their subscription, \n    /// @notice but they want to split/share the subscription between them\n    /// @param _sendApprovalTo Address of the potential subaccount holder  (Fractionalized) \n    function sendFractionalizedInvitation(address _sendApprovalTo) external virtual isSubscriptionActive isPotentialAcctSubscribed(_sendApprovalTo)  {\n        require(sentApproval[_sendApprovalTo] == false, \"You were already sent an approval\");\n\n        ApprovalType approveType = ApprovalType.FractionalizedApproval;\n         \n        PendingApproval memory _pendingapproval = PendingApproval({from: msg.sender, to: _sendApprovalTo, status: true, _approvalType: approveType});\n        pendingApprovals[pendingId] = _pendingapproval; \n        pendingId++;\n\n        sentApproval[_sendApprovalTo] = true; \n        \n        emit SendApproval(pendingId, msg.sender, _sendApprovalTo, approveType);\n    }\n\n    /// @notice Allow users to confirm they have approved a split account or sub account subscription\n    /// @param _id represents the id of the pending approval\n    /// @param _approvalType represents the approval type (fractional or non-fractional) \n    function confirmApproval(uint _id, ApprovalType _approvalType) external virtual {\n        require(pendingApprovals[_id].to == msg.sender, \"Only allowed for potential subaccount holders\"); \n    \n        if (_approvalType == ApprovalType.NonFractionalApproval) {\n            emit ConfirmSubAcctApproval(msg.sender); \n        }\n        \n        else if (_approvalType == ApprovalType.FractionalizedApproval) {\n            emit ConfirmSplitAcctApproval(msg.sender); \n        }\n\n    }\n    \n\n    /// @notice Allows potential sub account holders to reject an approval \n    /// @param _id represents the id of the pending approval\n    function rejectInvitation(uint _id) external virtual  {\n        require(owner() != msg.sender, \"Owner of this contract cannot perform this action\"); \n        require(pendingApprovals[_id].to == msg.sender, \"Only allowed for potential subaccount holders\"); \n        delete pendingApprovals[_id]; \n        emit RejectApproval(msg.sender);\n    }\n\n    /// @notice Add split account to membership\n    /// @param _splitAcct represents who you want to add to the split account\n    /// @param _id represents the id of the pending approval\n    function addSplitAcct(address _splitAcct, uint _id) public virtual isSubscriptionActive isApproved(_id, ApprovalType.NonFractionalApproval)  {\n        Membership storage _membership = subscription[msg.sender]; \n        _membership.splitAccts.push(_splitAcct);\n    }\n\n    /// @notice Add sub account to membership\n    /// @param _subAcct represents who you want to add to the sub account\n    /// @param _id represents the id of the pending approval\n    function addSubAcct(address _subAcct, uint _id) public virtual isSubscriptionActive isApproved(_id, ApprovalType.FractionalizedApproval)  {\n        Membership storage _membership = subscription[msg.sender]; \n        _membership.subAccts.push(_subAcct); \n    }\n\n    // renew a persons membership\n    // checks to see if they have a membership\n    // makes them pay the subscription fee to renew membership\n    function renew() external view {\n        require(owner() != msg.sender, \"The owner of this contract cannot perform this action\"); \n        require(msg.sender == subscription[msg.sender].mainAcct, \"Only the main account holder can execute this operation\"); //checks to see if you are the main acct holder\n        require(_subscribed[msg.sender] == true, \"Subscription doesn't exist, or it's cancelled\");        \n        //require() some sort of payment from the msg.sender\n        // membership.expired = false \n    }\n}",
  "sourcePath": "/home/keshawnstrong/Desktop/git/Subscriptions/contracts/Subscriptions.sol",
  "compiler": {
    "name": "solc",
    "version": "0.8.21+commit.d9974bed.Emscripten.clang"
  },
  "schemaVersion": "3.4.16",
  "updatedAt": "2025-03-27T02:41:59.840Z",
  "devdoc": {
    "author": "Keshawn",
    "custom:experimental": "This is an experimental contract.",
    "errors": {
      "OwnableInvalidOwner(address)": [
        {
          "details": "The owner is not a valid owner account. (eg. `address(0)`)"
        }
      ],
      "OwnableUnauthorizedAccount(address)": [
        {
          "details": "The caller account is not authorized to perform an operation."
        }
      ]
    },
    "kind": "dev",
    "methods": {
      "addSplitAcct(address,uint256)": {
        "params": {
          "_id": "represents the id of the pending approval",
          "_splitAcct": "represents who you want to add to the split account"
        }
      },
      "addSubAcct(address,uint256)": {
        "params": {
          "_id": "represents the id of the pending approval",
          "_subAcct": "represents who you want to add to the sub account"
        }
      },
      "changePrice(uint256)": {
        "details": "This function will only allow the owner of the contract to set the subscription price",
        "params": {
          "_setPrice": "Sets a new price for the subscription  REMINDER: _setPrice cannot be lower than zero"
        }
      },
      "confirmApproval(uint256,uint8)": {
        "params": {
          "_approvalType": "represents the approval type (fractional or non-fractional) ",
          "_id": "represents the id of the pending approval"
        }
      },
      "constructor": {
        "details": "other paramters included default values set by the variables in the beginning ",
        "params": {
          "_name": ", _price, _timeframe "
        }
      },
      "deleteMembership()": {
        "custom:removefunction": "I may remove this function  REMINDER: Test Functionality"
      },
      "getCancellations()": {
        "returns": {
          "_0": "Return the amount of cancellations by previous subscribers"
        }
      },
      "getSubscribers()": {
        "returns": {
          "_0": "Returns the amount subscribers "
        }
      },
      "getSubscriptionInfo()": {
        "returns": {
          "_0": "Returns data about subscription "
        }
      },
      "owner()": {
        "details": "Returns the address of the current owner."
      },
      "rejectInvitation(uint256)": {
        "params": {
          "_id": "represents the id of the pending approval"
        }
      },
      "renounceOwnership()": {
        "details": "Leaves the contract without owner. It will not be possible to call `onlyOwner` functions. Can only be called by the current owner. NOTE: Renouncing ownership will leave the contract without an owner, thereby disabling any functionality that is only available to the owner."
      },
      "sendFractionalizedInvitation(address)": {
        "params": {
          "_sendApprovalTo": "Address of the potential subaccount holder  (Fractionalized) "
        }
      },
      "sendNonFractionalizedInvitation(address)": {
        "params": {
          "_sendApprovalTo": "Address of the potential subaccount holder (Non-Fractional)"
        }
      },
      "transferOwnership(address)": {
        "details": "Transfers ownership of the contract to a new account (`newOwner`). Can only be called by the current owner."
      }
    },
    "title": "Subscription Project",
    "version": 1
  },
  "userdoc": {
    "kind": "user",
    "methods": {
      "addSplitAcct(address,uint256)": {
        "notice": "Add split account to membership"
      },
      "addSubAcct(address,uint256)": {
        "notice": "Add sub account to membership"
      },
      "cancel()": {
        "notice": "Unsubscribes membership from subscription Tracks subscriptions and cancellations"
      },
      "confirmApproval(uint256,uint8)": {
        "notice": "Allow users to confirm they have approved a split account or sub account subscription"
      },
      "constructor": {
        "notice": "Constructor Initiates Subscription Data Struct"
      },
      "rejectInvitation(uint256)": {
        "notice": "Allows potential sub account holders to reject an approval "
      },
      "sendFractionalizedInvitation(address)": {
        "notice": "Ex: A roomate wants to add the roomate to their subscription, but they want to split/share the subscription between them"
      },
      "sendNonFractionalizedInvitation(address)": {
        "notice": "This function will send a non fractionalized approval to the potential subaccount "
      },
      "subscribe()": {
        "notice": "Allows users to subscribe to the subscription  REMINDER: Make sure users have enough funds in their wallet REMINDER: Make sure the function is made payable"
      }
    },
    "version": 1
  }
}