{
  "contractName": "Subscription",
  "abi": [
    {
      "inputs": [
        {
          "internalType": "string",
          "name": "_name",
          "type": "string"
        },
        {
          "internalType": "uint256",
          "name": "_price",
          "type": "uint256"
        },
        {
          "internalType": "uint256",
          "name": "_timeframe",
          "type": "uint256"
        }
      ],
      "stateMutability": "nonpayable",
      "type": "constructor"
    },
    {
      "inputs": [
        {
          "internalType": "address",
          "name": "owner",
          "type": "address"
        }
      ],
      "name": "OwnableInvalidOwner",
      "type": "error"
    },
    {
      "inputs": [
        {
          "internalType": "address",
          "name": "account",
          "type": "address"
        }
      ],
      "name": "OwnableUnauthorizedAccount",
      "type": "error"
    },
    {
      "anonymous": false,
      "inputs": [
        {
          "indexed": true,
          "internalType": "address",
          "name": "user",
          "type": "address"
        }
      ],
      "name": "CancelSubscription",
      "type": "event"
    },
    {
      "anonymous": false,
      "inputs": [
        {
          "indexed": true,
          "internalType": "address",
          "name": "potentialSubAcct",
          "type": "address"
        }
      ],
      "name": "ConfirmSplitAcctApproval",
      "type": "event"
    },
    {
      "anonymous": false,
      "inputs": [
        {
          "indexed": true,
          "internalType": "address",
          "name": "potentialSubAcct",
          "type": "address"
        }
      ],
      "name": "ConfirmSubAcctApproval",
      "type": "event"
    },
    {
      "anonymous": false,
      "inputs": [
        {
          "indexed": true,
          "internalType": "address",
          "name": "user",
          "type": "address"
        }
      ],
      "name": "DeleteMembership",
      "type": "event"
    },
    {
      "anonymous": false,
      "inputs": [
        {
          "indexed": true,
          "internalType": "address",
          "name": "previousOwner",
          "type": "address"
        },
        {
          "indexed": true,
          "internalType": "address",
          "name": "newOwner",
          "type": "address"
        }
      ],
      "name": "OwnershipTransferred",
      "type": "event"
    },
    {
      "anonymous": false,
      "inputs": [
        {
          "indexed": true,
          "internalType": "string",
          "name": "_name",
          "type": "string"
        },
        {
          "indexed": false,
          "internalType": "uint256",
          "name": "_price",
          "type": "uint256"
        }
      ],
      "name": "PriceUpdate",
      "type": "event"
    },
    {
      "anonymous": false,
      "inputs": [
        {
          "indexed": true,
          "internalType": "address",
          "name": "potentialSubAcct",
          "type": "address"
        }
      ],
      "name": "RejectApproval",
      "type": "event"
    },
    {
      "anonymous": false,
      "inputs": [
        {
          "indexed": true,
          "internalType": "uint256",
          "name": "id",
          "type": "uint256"
        },
        {
          "indexed": false,
          "internalType": "address",
          "name": "from",
          "type": "address"
        },
        {
          "indexed": false,
          "internalType": "address",
          "name": "to",
          "type": "address"
        },
        {
          "indexed": false,
          "internalType": "enum Subscription.ApprovalType",
          "name": "approvalType",
          "type": "uint8"
        }
      ],
      "name": "SendApproval",
      "type": "event"
    },
    {
      "anonymous": false,
      "inputs": [
        {
          "indexed": true,
          "internalType": "address",
          "name": "user",
          "type": "address"
        },
        {
          "indexed": false,
          "internalType": "bool",
          "name": "_newStatus",
          "type": "bool"
        },
        {
          "indexed": false,
          "internalType": "bool",
          "name": "_oldStatus",
          "type": "bool"
        }
      ],
      "name": "StatusChanged",
      "type": "event"
    },
    {
      "anonymous": false,
      "inputs": [
        {
          "indexed": true,
          "internalType": "address",
          "name": "user",
          "type": "address"
        },
        {
          "indexed": false,
          "internalType": "uint256",
          "name": "_price",
          "type": "uint256"
        }
      ],
      "name": "Subscribed",
      "type": "event"
    },
    {
      "inputs": [
        {
          "internalType": "address",
          "name": "",
          "type": "address"
        }
      ],
      "name": "isSubscribed",
      "outputs": [
        {
          "internalType": "bool",
          "name": "",
          "type": "bool"
        }
      ],
      "stateMutability": "view",
      "type": "function"
    },
    {
      "inputs": [
        {
          "internalType": "address",
          "name": "",
          "type": "address"
        }
      ],
      "name": "memberships",
      "outputs": [
        {
          "internalType": "uint256",
          "name": "price",
          "type": "uint256"
        },
        {
          "internalType": "address",
          "name": "mainAcct",
          "type": "address"
        },
        {
          "internalType": "bool",
          "name": "ownedPreviousMembership",
          "type": "bool"
        },
        {
          "internalType": "bool",
          "name": "isExpired",
          "type": "bool"
        }
      ],
      "stateMutability": "view",
      "type": "function"
    },
    {
      "inputs": [],
      "name": "owner",
      "outputs": [
        {
          "internalType": "address",
          "name": "",
          "type": "address"
        }
      ],
      "stateMutability": "view",
      "type": "function"
    },
    {
      "inputs": [
        {
          "internalType": "address",
          "name": "subacct",
          "type": "address"
        }
      ],
      "name": "pendingApprovals",
      "outputs": [
        {
          "internalType": "address",
          "name": "from",
          "type": "address"
        },
        {
          "internalType": "address",
          "name": "to",
          "type": "address"
        },
        {
          "internalType": "bool",
          "name": "status",
          "type": "bool"
        },
        {
          "internalType": "enum Subscription.ApprovalType",
          "name": "_approvalType",
          "type": "uint8"
        }
      ],
      "stateMutability": "view",
      "type": "function"
    },
    {
      "inputs": [],
      "name": "renounceOwnership",
      "outputs": [],
      "stateMutability": "nonpayable",
      "type": "function"
    },
    {
      "inputs": [
        {
          "internalType": "address",
          "name": "_sendTo",
          "type": "address"
        }
      ],
      "name": "sentApproval",
      "outputs": [
        {
          "internalType": "bool",
          "name": "",
          "type": "bool"
        }
      ],
      "stateMutability": "view",
      "type": "function"
    },
    {
      "inputs": [],
      "name": "subscriptionData",
      "outputs": [
        {
          "internalType": "uint256",
          "name": "price",
          "type": "uint256"
        },
        {
          "internalType": "uint256",
          "name": "timeframe",
          "type": "uint256"
        },
        {
          "internalType": "uint256",
          "name": "addOnAcctPrice",
          "type": "uint256"
        },
        {
          "internalType": "uint256",
          "name": "subscribers",
          "type": "uint256"
        },
        {
          "internalType": "uint256",
          "name": "cancellations",
          "type": "uint256"
        },
        {
          "internalType": "string",
          "name": "name",
          "type": "string"
        }
      ],
      "stateMutability": "view",
      "type": "function"
    },
    {
      "inputs": [
        {
          "internalType": "address",
          "name": "newOwner",
          "type": "address"
        }
      ],
      "name": "transferOwnership",
      "outputs": [],
      "stateMutability": "nonpayable",
      "type": "function"
    },
    {
      "inputs": [],
      "name": "getSubscribers",
      "outputs": [
        {
          "internalType": "uint256",
          "name": "",
          "type": "uint256"
        }
      ],
      "stateMutability": "view",
      "type": "function"
    },
    {
      "inputs": [],
      "name": "getCancellations",
      "outputs": [
        {
          "internalType": "uint256",
          "name": "",
          "type": "uint256"
        }
      ],
      "stateMutability": "view",
      "type": "function"
    },
    {
      "inputs": [],
      "name": "subscribe",
      "outputs": [],
      "stateMutability": "payable",
      "type": "function"
    },
    {
      "inputs": [],
      "name": "cancel",
      "outputs": [],
      "stateMutability": "nonpayable",
      "type": "function"
    },
    {
      "inputs": [],
      "name": "deleteMembership",
      "outputs": [],
      "stateMutability": "nonpayable",
      "type": "function"
    },
    {
      "inputs": [
        {
          "internalType": "uint256",
          "name": "_setPrice",
          "type": "uint256"
        }
      ],
      "name": "changePrice",
      "outputs": [],
      "stateMutability": "nonpayable",
      "type": "function"
    },
    {
      "inputs": [
        {
          "internalType": "address",
          "name": "_sendTo",
          "type": "address"
        }
      ],
      "name": "sendNonFractionalizedInvitation",
      "outputs": [],
      "stateMutability": "nonpayable",
      "type": "function"
    },
    {
      "inputs": [
        {
          "internalType": "address",
          "name": "_sendTo",
          "type": "address"
        }
      ],
      "name": "sendFractionalizedInvitation",
      "outputs": [],
      "stateMutability": "nonpayable",
      "type": "function"
    },
    {
      "inputs": [
        {
          "internalType": "address",
          "name": "_sendTo",
          "type": "address"
        },
        {
          "internalType": "enum Subscription.ApprovalType",
          "name": "_approvalType",
          "type": "uint8"
        }
      ],
      "name": "confirmApproval",
      "outputs": [],
      "stateMutability": "nonpayable",
      "type": "function"
    },
    {
      "inputs": [
        {
          "internalType": "address",
          "name": "_from",
          "type": "address"
        }
      ],
      "name": "rejectInvitation",
      "outputs": [],
      "stateMutability": "nonpayable",
      "type": "function"
    },
    {
      "inputs": [
        {
          "internalType": "address",
          "name": "_splitAcct",
          "type": "address"
        },
        {
          "internalType": "address",
          "name": "_from",
          "type": "address"
        }
      ],
      "name": "addSplitAcct",
      "outputs": [],
      "stateMutability": "nonpayable",
      "type": "function"
    },
    {
      "inputs": [
        {
          "internalType": "address",
          "name": "_subAcct",
          "type": "address"
        },
        {
          "internalType": "address",
          "name": "_from",
          "type": "address"
        }
      ],
      "name": "addSubAcct",
      "outputs": [],
      "stateMutability": "nonpayable",
      "type": "function"
    },
    {
      "inputs": [],
      "name": "renew",
      "outputs": [],
      "stateMutability": "view",
      "type": "function"
    }
  ],
  "bytecode": "0x608060405234801562000010575f80fd5b5060405162004535380380620045358339818101604052810190620000369190620003d0565b335f73ffffffffffffffffffffffffffffffffffffffff168173ffffffffffffffffffffffffffffffffffffffff1603620000aa575f6040517f1e4fbdf7000000000000000000000000000000000000000000000000000000008152600401620000a191906200048b565b60405180910390fd5b620000bb816200015260201b60201c565b506040518060c001604052808381526020018242620000db9190620004d3565b81526020016003548152602001600654815260200160075481526020018481525060095f820151815f01556020820151816001015560408201518160020155606082015181600301556080820151816004015560a08201518160050190816200014591906200073b565b509050505050506200081f565b5f805f9054906101000a900473ffffffffffffffffffffffffffffffffffffffff169050815f806101000a81548173ffffffffffffffffffffffffffffffffffffffff021916908373ffffffffffffffffffffffffffffffffffffffff1602179055508173ffffffffffffffffffffffffffffffffffffffff168173ffffffffffffffffffffffffffffffffffffffff167f8be0079c531659141344cd1fd0a4f28419497f9722a3daafe3b4186f6b6457e060405160405180910390a35050565b5f604051905090565b5f80fd5b5f80fd5b5f80fd5b5f80fd5b5f601f19601f8301169050919050565b7f4e487b71000000000000000000000000000000000000000000000000000000005f52604160045260245ffd5b62000274826200022c565b810181811067ffffffffffffffff821117156200029657620002956200023c565b5b80604052505050565b5f620002aa62000213565b9050620002b8828262000269565b919050565b5f67ffffffffffffffff821115620002da57620002d96200023c565b5b620002e5826200022c565b9050602081019050919050565b5f5b8381101562000311578082015181840152602081019050620002f4565b5f8484015250505050565b5f620003326200032c84620002bd565b6200029f565b90508281526020810184848401111562000351576200035062000228565b5b6200035e848285620002f2565b509392505050565b5f82601f8301126200037d576200037c62000224565b5b81516200038f8482602086016200031c565b91505092915050565b5f819050919050565b620003ac8162000398565b8114620003b7575f80fd5b50565b5f81519050620003ca81620003a1565b92915050565b5f805f60608486031215620003ea57620003e96200021c565b5b5f84015167ffffffffffffffff8111156200040a576200040962000220565b5b620004188682870162000366565b93505060206200042b86828701620003ba565b92505060406200043e86828701620003ba565b9150509250925092565b5f73ffffffffffffffffffffffffffffffffffffffff82169050919050565b5f620004738262000448565b9050919050565b620004858162000467565b82525050565b5f602082019050620004a05f8301846200047a565b92915050565b7f4e487b71000000000000000000000000000000000000000000000000000000005f52601160045260245ffd5b5f620004df8262000398565b9150620004ec8362000398565b9250828201905080821115620005075762000506620004a6565b5b92915050565b5f81519050919050565b7f4e487b71000000000000000000000000000000000000000000000000000000005f52602260045260245ffd5b5f60028204905060018216806200055c57607f821691505b60208210810362000572576200057162000517565b5b50919050565b5f819050815f5260205f209050919050565b5f6020601f8301049050919050565b5f82821b905092915050565b5f60088302620005d67fffffffffffffffffffffffffffffffffffffffffffffffffffffffffffffffff8262000599565b620005e2868362000599565b95508019841693508086168417925050509392505050565b5f819050919050565b5f620006236200061d620006178462000398565b620005fa565b62000398565b9050919050565b5f819050919050565b6200063e8362000603565b620006566200064d826200062a565b848454620005a5565b825550505050565b5f90565b6200066c6200065e565b6200067981848462000633565b505050565b5b81811015620006a057620006945f8262000662565b6001810190506200067f565b5050565b601f821115620006ef57620006b98162000578565b620006c4846200058a565b81016020851015620006d4578190505b620006ec620006e3856200058a565b8301826200067e565b50505b505050565b5f82821c905092915050565b5f620007115f1984600802620006f4565b1980831691505092915050565b5f6200072b838362000700565b9150826002028217905092915050565b62000746826200050d565b67ffffffffffffffff8111156200076257620007616200023c565b5b6200076e825462000544565b6200077b828285620006a4565b5f60209050601f831160018114620007b1575f84156200079c578287015190505b620007a885826200071e565b86555062000817565b601f198416620007c18662000578565b5f5b82811015620007ea57848901518255600182019150602085019450602081019050620007c3565b868310156200080a578489015162000806601f89168262000700565b8355505b6001600288020188555050505b505050505050565b613d08806200082d5f395ff3fe608060405260043610610129575f3560e01c80638da5cb5b116100aa578063aa8f30751161006e578063aa8f307514610379578063b92ae87c146103a1578063e8a0006a146103dd578063ea8a1af01461040c578063f2fde38b14610422578063f78a14b01461044a57610129565b80638da5cb5b146102df5780638f449a051461030957806397fa657014610313578063a1357f1914610329578063a2b40d191461035157610129565b80636888ecc4116100f15780636888ecc4146101fc5780636d798dce14610226578063715018a61461026257806373d9879914610278578063783c8e8d146102b757610129565b806305cc61ad1461012d5780630d932e7014610157578063124304821461016d5780631864aded146101ac5780631eb9a8ca146101d4575b5f80fd5b348015610138575f80fd5b50610141610472565b60405161014e919061312f565b60405180910390f35b348015610162575f80fd5b5061016b61047e565b005b348015610178575f80fd5b50610193600480360381019061018e91906131a6565b610652565b6040516101a3949392919061326d565b60405180910390f35b3480156101b7575f80fd5b506101d260048036038101906101cd91906132b0565b6106d6565b005b3480156101df575f80fd5b506101fa60048036038101906101f59190613311565b610b9b565b005b348015610207575f80fd5b50610210610d4f565b60405161021d919061312f565b60405180910390f35b348015610231575f80fd5b5061024c600480360381019061024791906131a6565b610d5b565b604051610259919061334f565b60405180910390f35b34801561026d575f80fd5b50610276610d78565b005b348015610283575f80fd5b5061029e600480360381019061029991906131a6565b610d8b565b6040516102ae9493929190613368565b60405180910390f35b3480156102c2575f80fd5b506102dd60048036038101906102d891906131a6565b610def565b005b3480156102ea575f80fd5b506102f36113bd565b60405161030091906133ab565b60405180910390f35b6103116113e4565b005b34801561031e575f80fd5b50610327611975565b005b348015610334575f80fd5b5061034f600480360381019061034a91906131a6565b611c9b565b005b34801561035c575f80fd5b50610377600480360381019061037291906133ee565b61226d565b005b348015610384575f80fd5b5061039f600480360381019061039a91906131a6565b6122cf565b005b3480156103ac575f80fd5b506103c760048036038101906103c291906131a6565b61250a565b6040516103d4919061334f565b60405180910390f35b3480156103e8575f80fd5b506103f1612527565b604051610403969594939291906134a3565b60405180910390f35b348015610417575f80fd5b506104206125d6565b005b34801561042d575f80fd5b50610448600480360381019061044391906131a6565b612990565b005b348015610455575f80fd5b50610470600480360381019061046b91906132b0565b612a14565b005b5f600960030154905090565b3373ffffffffffffffffffffffffffffffffffffffff1661049d6113bd565b73ffffffffffffffffffffffffffffffffffffffff16036104f3576040517f08c379a00000000000000000000000000000000000000000000000000000000081526004016104ea90613579565b60405180910390fd5b60105f3373ffffffffffffffffffffffffffffffffffffffff1673ffffffffffffffffffffffffffffffffffffffff1681526020019081526020015f206001015f9054906101000a900473ffffffffffffffffffffffffffffffffffffffff1673ffffffffffffffffffffffffffffffffffffffff163373ffffffffffffffffffffffffffffffffffffffff16146105c0576040517f08c379a00000000000000000000000000000000000000000000000000000000081526004016105b790613607565b60405180910390fd5b60011515600f5f3373ffffffffffffffffffffffffffffffffffffffff1673ffffffffffffffffffffffffffffffffffffffff1681526020019081526020015f205f9054906101000a900460ff16151514610650576040517f08c379a000000000000000000000000000000000000000000000000000000000815260040161064790613695565b60405180910390fd5b565b6011602052805f5260405f205f91509050805f015f9054906101000a900473ffffffffffffffffffffffffffffffffffffffff1690806001015f9054906101000a900473ffffffffffffffffffffffffffffffffffffffff16908060010160149054906101000a900460ff16908060010160159054906101000a900460ff16905084565b3373ffffffffffffffffffffffffffffffffffffffff166106f56113bd565b73ffffffffffffffffffffffffffffffffffffffff160361074b576040517f08c379a000000000000000000000000000000000000000000000000000000000815260040161074290613579565b60405180910390fd5b60105f3373ffffffffffffffffffffffffffffffffffffffff1673ffffffffffffffffffffffffffffffffffffffff1681526020019081526020015f206001015f9054906101000a900473ffffffffffffffffffffffffffffffffffffffff1673ffffffffffffffffffffffffffffffffffffffff163373ffffffffffffffffffffffffffffffffffffffff1614610818576040517f08c379a000000000000000000000000000000000000000000000000000000000815260040161080f90613607565b60405180910390fd5b60011515600f5f3373ffffffffffffffffffffffffffffffffffffffff1673ffffffffffffffffffffffffffffffffffffffff1681526020019081526020015f205f9054906101000a900460ff161515146108a8576040517f08c379a000000000000000000000000000000000000000000000000000000000815260040161089f90613695565b60405180910390fd5b5f60105f3373ffffffffffffffffffffffffffffffffffffffff1673ffffffffffffffffffffffffffffffffffffffff1681526020019081526020015f2090506009600101544210156109135760018160040160016101000a81548160ff0219169083151502179055505b5f15158160040160019054906101000a900460ff1615151461096a576040517f08c379a0000000000000000000000000000000000000000000000000000000008152600401610961906136fd565b60405180910390fd5b815f8060115f8473ffffffffffffffffffffffffffffffffffffffff1673ffffffffffffffffffffffffffffffffffffffff1681526020019081526020015f2090503373ffffffffffffffffffffffffffffffffffffffff166109cb6113bd565b73ffffffffffffffffffffffffffffffffffffffff1603610a21576040517f08c379a0000000000000000000000000000000000000000000000000000000008152600401610a1890613579565b60405180910390fd5b816001811115610a3457610a336131fa565b5b8160010160159054906101000a900460ff166001811115610a5857610a576131fa565b5b14610a98576040517f08c379a0000000000000000000000000000000000000000000000000000000008152600401610a8f90613765565b60405180910390fd5b600115158160010160149054906101000a900460ff16151514610af0576040517f08c379a0000000000000000000000000000000000000000000000000000000008152600401610ae7906137f3565b60405180910390fd5b5f60105f3373ffffffffffffffffffffffffffffffffffffffff1673ffffffffffffffffffffffffffffffffffffffff1681526020019081526020015f2090508060030187908060018154018082558091505060019003905f5260205f20015f9091909190916101000a81548173ffffffffffffffffffffffffffffffffffffffff021916908373ffffffffffffffffffffffffffffffffffffffff16021790555050505050505050565b3373ffffffffffffffffffffffffffffffffffffffff1660115f8473ffffffffffffffffffffffffffffffffffffffff1673ffffffffffffffffffffffffffffffffffffffff1681526020019081526020015f206001015f9054906101000a900473ffffffffffffffffffffffffffffffffffffffff1673ffffffffffffffffffffffffffffffffffffffff1614610c68576040517f08c379a0000000000000000000000000000000000000000000000000000000008152600401610c5f90613881565b60405180910390fd5b5f6001811115610c7b57610c7a6131fa565b5b816001811115610c8e57610c8d6131fa565b5b03610cdb573373ffffffffffffffffffffffffffffffffffffffff167fe07787561920c3cfbc651667846dbaeb5968804b522d91bc380da9bfc7c02f0160405160405180910390a2610d4b565b600180811115610cee57610ced6131fa565b5b816001811115610d0157610d006131fa565b5b03610d4a573373ffffffffffffffffffffffffffffffffffffffff167fcc4db49202dfbea28a66fa1454019e55a246b94563b752fda2f7499da6ce6eaa60405160405180910390a25b5b5050565b5f600960040154905090565b6012602052805f5260405f205f915054906101000a900460ff1681565b610d80612eda565b610d895f612f61565b565b6010602052805f5260405f205f91509050805f015490806001015f9054906101000a900473ffffffffffffffffffffffffffffffffffffffff1690806004015f9054906101000a900460ff16908060040160019054906101000a900460ff16905084565b3373ffffffffffffffffffffffffffffffffffffffff16610e0e6113bd565b73ffffffffffffffffffffffffffffffffffffffff1603610e64576040517f08c379a0000000000000000000000000000000000000000000000000000000008152600401610e5b90613579565b60405180910390fd5b60105f3373ffffffffffffffffffffffffffffffffffffffff1673ffffffffffffffffffffffffffffffffffffffff1681526020019081526020015f206001015f9054906101000a900473ffffffffffffffffffffffffffffffffffffffff1673ffffffffffffffffffffffffffffffffffffffff163373ffffffffffffffffffffffffffffffffffffffff1614610f31576040517f08c379a0000000000000000000000000000000000000000000000000000000008152600401610f2890613607565b60405180910390fd5b60011515600f5f3373ffffffffffffffffffffffffffffffffffffffff1673ffffffffffffffffffffffffffffffffffffffff1681526020019081526020015f205f9054906101000a900460ff16151514610fc1576040517f08c379a0000000000000000000000000000000000000000000000000000000008152600401610fb890613695565b60405180910390fd5b5f60105f3373ffffffffffffffffffffffffffffffffffffffff1673ffffffffffffffffffffffffffffffffffffffff1681526020019081526020015f20905060096001015442101561102c5760018160040160016101000a81548160ff0219169083151502179055505b5f15158160040160019054906101000a900460ff16151514611083576040517f08c379a000000000000000000000000000000000000000000000000000000000815260040161107a906136fd565b60405180910390fd5b815f1515600f5f8373ffffffffffffffffffffffffffffffffffffffff1673ffffffffffffffffffffffffffffffffffffffff1681526020019081526020015f205f9054906101000a900460ff16151514611113576040517f08c379a000000000000000000000000000000000000000000000000000000000815260040161110a9061390f565b60405180910390fd5b5f151560125f8573ffffffffffffffffffffffffffffffffffffffff1673ffffffffffffffffffffffffffffffffffffffff1681526020019081526020015f205f9054906101000a900460ff161515146111a2576040517f08c379a000000000000000000000000000000000000000000000000000000000815260040161119990613977565b60405180910390fd5b5f8060405180608001604052803373ffffffffffffffffffffffffffffffffffffffff1681526020018673ffffffffffffffffffffffffffffffffffffffff168152602001600115158152602001836001811115611203576112026131fa565b5b81525090508060115f8773ffffffffffffffffffffffffffffffffffffffff1673ffffffffffffffffffffffffffffffffffffffff1681526020019081526020015f205f820151815f015f6101000a81548173ffffffffffffffffffffffffffffffffffffffff021916908373ffffffffffffffffffffffffffffffffffffffff1602179055506020820151816001015f6101000a81548173ffffffffffffffffffffffffffffffffffffffff021916908373ffffffffffffffffffffffffffffffffffffffff16021790555060408201518160010160146101000a81548160ff02191690831515021790555060608201518160010160156101000a81548160ff0219169083600181111561131b5761131a6131fa565b5b0217905550905050600160125f8773ffffffffffffffffffffffffffffffffffffffff1673ffffffffffffffffffffffffffffffffffffffff1681526020019081526020015f205f6101000a81548160ff0219169083151502179055506008547ffab529d6c29cb396e9a4a91a902fbc0c82f1959c6a0f14995296e55898fc7e013387856040516113ae93929190613995565b60405180910390a25050505050565b5f805f9054906101000a900473ffffffffffffffffffffffffffffffffffffffff16905090565b3373ffffffffffffffffffffffffffffffffffffffff166114036113bd565b73ffffffffffffffffffffffffffffffffffffffff1603611459576040517f08c379a000000000000000000000000000000000000000000000000000000000815260040161145090613a14565b60405180910390fd5b5f1515600f5f3373ffffffffffffffffffffffffffffffffffffffff1673ffffffffffffffffffffffffffffffffffffffff1681526020019081526020015f205f9054906101000a900460ff161515146114e8576040517f08c379a00000000000000000000000000000000000000000000000000000000081526004016114df90613a7c565b60405180910390fd5b5f151560105f3373ffffffffffffffffffffffffffffffffffffffff1673ffffffffffffffffffffffffffffffffffffffff1681526020019081526020015f206004015f9054906101000a900460ff1615150361174e57611547613029565b33816020019073ffffffffffffffffffffffffffffffffffffffff16908173ffffffffffffffffffffffffffffffffffffffff16815250508060105f3373ffffffffffffffffffffffffffffffffffffffff1673ffffffffffffffffffffffffffffffffffffffff1681526020019081526020015f205f820151815f01556020820151816001015f6101000a81548173ffffffffffffffffffffffffffffffffffffffff021916908373ffffffffffffffffffffffffffffffffffffffff1602179055506040820151816002019080519060200190611627929190613075565b506060820151816003019080519060200190611644929190613075565b506080820151816004015f6101000a81548160ff02191690831515021790555060a08201518160040160016101000a81548160ff0219169083151502179055509050506001600f5f3373ffffffffffffffffffffffffffffffffffffffff1673ffffffffffffffffffffffffffffffffffffffff1681526020019081526020015f205f6101000a81548160ff02191690831515021790555060096003015f8154809291906116f190613ac7565b91905055503373ffffffffffffffffffffffffffffffffffffffff167f4b90d6788928d63c1821907a6a8b95f40d26562d8fe41b105f7489db9966dfcb60095f0154604051611740919061312f565b60405180910390a250611973565b611756613029565b33816020019073ffffffffffffffffffffffffffffffffffffffff16908173ffffffffffffffffffffffffffffffffffffffff16815250508060105f3373ffffffffffffffffffffffffffffffffffffffff1673ffffffffffffffffffffffffffffffffffffffff1681526020019081526020015f205f820151815f01556020820151816001015f6101000a81548173ffffffffffffffffffffffffffffffffffffffff021916908373ffffffffffffffffffffffffffffffffffffffff1602179055506040820151816002019080519060200190611836929190613075565b506060820151816003019080519060200190611853929190613075565b506080820151816004015f6101000a81548160ff02191690831515021790555060a08201518160040160016101000a81548160ff0219169083151502179055509050506001600f5f3373ffffffffffffffffffffffffffffffffffffffff1673ffffffffffffffffffffffffffffffffffffffff1681526020019081526020015f205f6101000a81548160ff02191690831515021790555060096004015f81548092919061190090613b0e565b919050555060096003015f81548092919061191a90613ac7565b91905055503373ffffffffffffffffffffffffffffffffffffffff167f4b90d6788928d63c1821907a6a8b95f40d26562d8fe41b105f7489db9966dfcb60095f0154604051611969919061312f565b60405180910390a2505b565b3373ffffffffffffffffffffffffffffffffffffffff166119946113bd565b73ffffffffffffffffffffffffffffffffffffffff16036119ea576040517f08c379a00000000000000000000000000000000000000000000000000000000081526004016119e190613579565b60405180910390fd5b60105f3373ffffffffffffffffffffffffffffffffffffffff1673ffffffffffffffffffffffffffffffffffffffff1681526020019081526020015f206001015f9054906101000a900473ffffffffffffffffffffffffffffffffffffffff1673ffffffffffffffffffffffffffffffffffffffff163373ffffffffffffffffffffffffffffffffffffffff1614611ab7576040517f08c379a0000000000000000000000000000000000000000000000000000000008152600401611aae90613607565b60405180910390fd5b60011515600f5f3373ffffffffffffffffffffffffffffffffffffffff1673ffffffffffffffffffffffffffffffffffffffff1681526020019081526020015f205f9054906101000a900460ff16151514611b47576040517f08c379a0000000000000000000000000000000000000000000000000000000008152600401611b3e90613695565b60405180910390fd5b5f60105f3373ffffffffffffffffffffffffffffffffffffffff1673ffffffffffffffffffffffffffffffffffffffff1681526020019081526020015f209050600960010154421015611bb25760018160040160016101000a81548160ff0219169083151502179055505b5f15158160040160019054906101000a900460ff16151514611c09576040517f08c379a0000000000000000000000000000000000000000000000000000000008152600401611c00906136fd565b60405180910390fd5b600f5f3373ffffffffffffffffffffffffffffffffffffffff1673ffffffffffffffffffffffffffffffffffffffff1681526020019081526020015f205f6101000a81549060ff02191690553373ffffffffffffffffffffffffffffffffffffffff167f05058cc32e8ad9bfc0c20a4da79d896e52758d35a9396490db36fc8e0add77e960405160405180910390a250565b3373ffffffffffffffffffffffffffffffffffffffff16611cba6113bd565b73ffffffffffffffffffffffffffffffffffffffff1603611d10576040517f08c379a0000000000000000000000000000000000000000000000000000000008152600401611d0790613579565b60405180910390fd5b60105f3373ffffffffffffffffffffffffffffffffffffffff1673ffffffffffffffffffffffffffffffffffffffff1681526020019081526020015f206001015f9054906101000a900473ffffffffffffffffffffffffffffffffffffffff1673ffffffffffffffffffffffffffffffffffffffff163373ffffffffffffffffffffffffffffffffffffffff1614611ddd576040517f08c379a0000000000000000000000000000000000000000000000000000000008152600401611dd490613607565b60405180910390fd5b60011515600f5f3373ffffffffffffffffffffffffffffffffffffffff1673ffffffffffffffffffffffffffffffffffffffff1681526020019081526020015f205f9054906101000a900460ff16151514611e6d576040517f08c379a0000000000000000000000000000000000000000000000000000000008152600401611e6490613695565b60405180910390fd5b5f60105f3373ffffffffffffffffffffffffffffffffffffffff1673ffffffffffffffffffffffffffffffffffffffff1681526020019081526020015f209050600960010154421015611ed85760018160040160016101000a81548160ff0219169083151502179055505b5f15158160040160019054906101000a900460ff16151514611f2f576040517f08c379a0000000000000000000000000000000000000000000000000000000008152600401611f26906136fd565b60405180910390fd5b815f1515600f5f8373ffffffffffffffffffffffffffffffffffffffff1673ffffffffffffffffffffffffffffffffffffffff1681526020019081526020015f205f9054906101000a900460ff16151514611fbf576040517f08c379a0000000000000000000000000000000000000000000000000000000008152600401611fb69061390f565b60405180910390fd5b5f151560125f8573ffffffffffffffffffffffffffffffffffffffff1673ffffffffffffffffffffffffffffffffffffffff1681526020019081526020015f205f9054906101000a900460ff1615151461204e576040517f08c379a000000000000000000000000000000000000000000000000000000000815260040161204590613977565b60405180910390fd5b5f600190505f60405180608001604052803373ffffffffffffffffffffffffffffffffffffffff1681526020018673ffffffffffffffffffffffffffffffffffffffff1681526020016001151581526020018360018111156120b3576120b26131fa565b5b81525090508060115f8773ffffffffffffffffffffffffffffffffffffffff1673ffffffffffffffffffffffffffffffffffffffff1681526020019081526020015f205f820151815f015f6101000a81548173ffffffffffffffffffffffffffffffffffffffff021916908373ffffffffffffffffffffffffffffffffffffffff1602179055506020820151816001015f6101000a81548173ffffffffffffffffffffffffffffffffffffffff021916908373ffffffffffffffffffffffffffffffffffffffff16021790555060408201518160010160146101000a81548160ff02191690831515021790555060608201518160010160156101000a81548160ff021916908360018111156121cb576121ca6131fa565b5b0217905550905050600160125f8773ffffffffffffffffffffffffffffffffffffffff1673ffffffffffffffffffffffffffffffffffffffff1681526020019081526020015f205f6101000a81548160ff0219169083151502179055506008547ffab529d6c29cb396e9a4a91a902fbc0c82f1959c6a0f14995296e55898fc7e0133878560405161225e93929190613995565b60405180910390a25050505050565b612275612eda565b8060095f0181905550600160405161228d9190613c2e565b60405180910390207f3be527d7a21a1845ed037cf49572fc00ee8bb81fcdaf3328d42b1aaace473b93826040516122c4919061312f565b60405180910390a250565b3373ffffffffffffffffffffffffffffffffffffffff166122ee6113bd565b73ffffffffffffffffffffffffffffffffffffffff1603612344576040517f08c379a000000000000000000000000000000000000000000000000000000000815260040161233b90613cb4565b60405180910390fd5b3373ffffffffffffffffffffffffffffffffffffffff1660115f8373ffffffffffffffffffffffffffffffffffffffff1673ffffffffffffffffffffffffffffffffffffffff1681526020019081526020015f206001015f9054906101000a900473ffffffffffffffffffffffffffffffffffffffff1673ffffffffffffffffffffffffffffffffffffffff1614612411576040517f08c379a000000000000000000000000000000000000000000000000000000000815260040161240890613881565b60405180910390fd5b60115f8273ffffffffffffffffffffffffffffffffffffffff1673ffffffffffffffffffffffffffffffffffffffff1681526020019081526020015f205f8082015f6101000a81549073ffffffffffffffffffffffffffffffffffffffff0219169055600182015f6101000a81549073ffffffffffffffffffffffffffffffffffffffff02191690556001820160146101000a81549060ff02191690556001820160156101000a81549060ff021916905550503373ffffffffffffffffffffffffffffffffffffffff167fe1d35d05be9eb894a2233eceb57856765921d1afa6e5fdc5d01a039e9ee83cb360405160405180910390a250565b600f602052805f5260405f205f915054906101000a900460ff1681565b6009805f01549080600101549080600201549080600301549080600401549080600501805461255590613b62565b80601f016020809104026020016040519081016040528092919081815260200182805461258190613b62565b80156125cc5780601f106125a3576101008083540402835291602001916125cc565b820191905f5260205f20905b8154815290600101906020018083116125af57829003601f168201915b5050505050905086565b3373ffffffffffffffffffffffffffffffffffffffff166125f56113bd565b73ffffffffffffffffffffffffffffffffffffffff160361264b576040517f08c379a000000000000000000000000000000000000000000000000000000000815260040161264290613579565b60405180910390fd5b60105f3373ffffffffffffffffffffffffffffffffffffffff1673ffffffffffffffffffffffffffffffffffffffff1681526020019081526020015f206001015f9054906101000a900473ffffffffffffffffffffffffffffffffffffffff1673ffffffffffffffffffffffffffffffffffffffff163373ffffffffffffffffffffffffffffffffffffffff1614612718576040517f08c379a000000000000000000000000000000000000000000000000000000000815260040161270f90613607565b60405180910390fd5b60011515600f5f3373ffffffffffffffffffffffffffffffffffffffff1673ffffffffffffffffffffffffffffffffffffffff1681526020019081526020015f205f9054906101000a900460ff161515146127a8576040517f08c379a000000000000000000000000000000000000000000000000000000000815260040161279f90613695565b60405180910390fd5b5f60105f3373ffffffffffffffffffffffffffffffffffffffff1673ffffffffffffffffffffffffffffffffffffffff1681526020019081526020015f2090506009600101544210156128135760018160040160016101000a81548160ff0219169083151502179055505b5f15158160040160019054906101000a900460ff1615151461286a576040517f08c379a0000000000000000000000000000000000000000000000000000000008152600401612861906136fd565b60405180910390fd5b5f600f5f3373ffffffffffffffffffffffffffffffffffffffff1673ffffffffffffffffffffffffffffffffffffffff1681526020019081526020015f205f6101000a81548160ff021916908315150217905550600160105f3373ffffffffffffffffffffffffffffffffffffffff1673ffffffffffffffffffffffffffffffffffffffff1681526020019081526020015f206004015f6101000a81548160ff02191690831515021790555060096004015f81548092919061292b90613ac7565b919050555060096003015f81548092919061294590613b0e565b91905055503373ffffffffffffffffffffffffffffffffffffffff167fe38a305dd87f383d2b30acd2011373a35aee3d5f803c50aa8cad332fca97811960405160405180910390a250565b612998612eda565b5f73ffffffffffffffffffffffffffffffffffffffff168173ffffffffffffffffffffffffffffffffffffffff1603612a08575f6040517f1e4fbdf70000000000000000000000000000000000000000000000000000000081526004016129ff91906133ab565b60405180910390fd5b612a1181612f61565b50565b3373ffffffffffffffffffffffffffffffffffffffff16612a336113bd565b73ffffffffffffffffffffffffffffffffffffffff1603612a89576040517f08c379a0000000000000000000000000000000000000000000000000000000008152600401612a8090613579565b60405180910390fd5b60105f3373ffffffffffffffffffffffffffffffffffffffff1673ffffffffffffffffffffffffffffffffffffffff1681526020019081526020015f206001015f9054906101000a900473ffffffffffffffffffffffffffffffffffffffff1673ffffffffffffffffffffffffffffffffffffffff163373ffffffffffffffffffffffffffffffffffffffff1614612b56576040517f08c379a0000000000000000000000000000000000000000000000000000000008152600401612b4d90613607565b60405180910390fd5b60011515600f5f3373ffffffffffffffffffffffffffffffffffffffff1673ffffffffffffffffffffffffffffffffffffffff1681526020019081526020015f205f9054906101000a900460ff16151514612be6576040517f08c379a0000000000000000000000000000000000000000000000000000000008152600401612bdd90613695565b60405180910390fd5b5f60105f3373ffffffffffffffffffffffffffffffffffffffff1673ffffffffffffffffffffffffffffffffffffffff1681526020019081526020015f209050600960010154421015612c515760018160040160016101000a81548160ff0219169083151502179055505b5f15158160040160019054906101000a900460ff16151514612ca8576040517f08c379a0000000000000000000000000000000000000000000000000000000008152600401612c9f906136fd565b60405180910390fd5b8160015f60115f8473ffffffffffffffffffffffffffffffffffffffff1673ffffffffffffffffffffffffffffffffffffffff1681526020019081526020015f2090503373ffffffffffffffffffffffffffffffffffffffff16612d0a6113bd565b73ffffffffffffffffffffffffffffffffffffffff1603612d60576040517f08c379a0000000000000000000000000000000000000000000000000000000008152600401612d5790613579565b60405180910390fd5b816001811115612d7357612d726131fa565b5b8160010160159054906101000a900460ff166001811115612d9757612d966131fa565b5b14612dd7576040517f08c379a0000000000000000000000000000000000000000000000000000000008152600401612dce90613765565b60405180910390fd5b600115158160010160149054906101000a900460ff16151514612e2f576040517f08c379a0000000000000000000000000000000000000000000000000000000008152600401612e26906137f3565b60405180910390fd5b5f60105f3373ffffffffffffffffffffffffffffffffffffffff1673ffffffffffffffffffffffffffffffffffffffff1681526020019081526020015f2090508060020187908060018154018082558091505060019003905f5260205f20015f9091909190916101000a81548173ffffffffffffffffffffffffffffffffffffffff021916908373ffffffffffffffffffffffffffffffffffffffff16021790555050505050505050565b612ee2613022565b73ffffffffffffffffffffffffffffffffffffffff16612f006113bd565b73ffffffffffffffffffffffffffffffffffffffff1614612f5f57612f23613022565b6040517f118cdaa7000000000000000000000000000000000000000000000000000000008152600401612f5691906133ab565b60405180910390fd5b565b5f805f9054906101000a900473ffffffffffffffffffffffffffffffffffffffff169050815f806101000a81548173ffffffffffffffffffffffffffffffffffffffff021916908373ffffffffffffffffffffffffffffffffffffffff1602179055508173ffffffffffffffffffffffffffffffffffffffff168173ffffffffffffffffffffffffffffffffffffffff167f8be0079c531659141344cd1fd0a4f28419497f9722a3daafe3b4186f6b6457e060405160405180910390a35050565b5f33905090565b6040518060c001604052805f81526020015f73ffffffffffffffffffffffffffffffffffffffff16815260200160608152602001606081526020015f151581526020015f151581525090565b828054828255905f5260205f209081019282156130eb579160200282015b828111156130ea578251825f6101000a81548173ffffffffffffffffffffffffffffffffffffffff021916908373ffffffffffffffffffffffffffffffffffffffff16021790555091602001919060010190613093565b5b5090506130f891906130fc565b5090565b5b80821115613113575f815f9055506001016130fd565b5090565b5f819050919050565b61312981613117565b82525050565b5f6020820190506131425f830184613120565b92915050565b5f80fd5b5f73ffffffffffffffffffffffffffffffffffffffff82169050919050565b5f6131758261314c565b9050919050565b6131858161316b565b811461318f575f80fd5b50565b5f813590506131a08161317c565b92915050565b5f602082840312156131bb576131ba613148565b5b5f6131c884828501613192565b91505092915050565b6131da8161316b565b82525050565b5f8115159050919050565b6131f4816131e0565b82525050565b7f4e487b71000000000000000000000000000000000000000000000000000000005f52602160045260245ffd5b60028110613238576132376131fa565b5b50565b5f81905061324882613227565b919050565b5f6132578261323b565b9050919050565b6132678161324d565b82525050565b5f6080820190506132805f8301876131d1565b61328d60208301866131d1565b61329a60408301856131eb565b6132a7606083018461325e565b95945050505050565b5f80604083850312156132c6576132c5613148565b5b5f6132d385828601613192565b92505060206132e485828601613192565b9150509250929050565b600281106132fa575f80fd5b50565b5f8135905061330b816132ee565b92915050565b5f806040838503121561332757613326613148565b5b5f61333485828601613192565b9250506020613345858286016132fd565b9150509250929050565b5f6020820190506133625f8301846131eb565b92915050565b5f60808201905061337b5f830187613120565b61338860208301866131d1565b61339560408301856131eb565b6133a260608301846131eb565b95945050505050565b5f6020820190506133be5f8301846131d1565b92915050565b6133cd81613117565b81146133d7575f80fd5b50565b5f813590506133e8816133c4565b92915050565b5f6020828403121561340357613402613148565b5b5f613410848285016133da565b91505092915050565b5f81519050919050565b5f82825260208201905092915050565b5f5b83811015613450578082015181840152602081019050613435565b5f8484015250505050565b5f601f19601f8301169050919050565b5f61347582613419565b61347f8185613423565b935061348f818560208601613433565b6134988161345b565b840191505092915050565b5f60c0820190506134b65f830189613120565b6134c36020830188613120565b6134d06040830187613120565b6134dd6060830186613120565b6134ea6080830185613120565b81810360a08301526134fc818461346b565b9050979650505050505050565b7f546865206f776e6572206f66207468697320636f6e74726163742063616e6e6f5f8201527f7420706572666f726d207468697320616374696f6e0000000000000000000000602082015250565b5f613563603583613423565b915061356e82613509565b604082019050919050565b5f6020820190508181035f83015261359081613557565b9050919050565b7f4f6e6c7920746865206d61696e206163636f756e7420686f6c6465722063616e5f8201527f20657865637574652074686973206f7065726174696f6e000000000000000000602082015250565b5f6135f1603783613423565b91506135fc82613597565b604082019050919050565b5f6020820190508181035f83015261361e816135e5565b9050919050565b7f537562736372697074696f6e20646f65736e27742065786973742c206f7220695f8201527f7427732063616e63656c6c656400000000000000000000000000000000000000602082015250565b5f61367f602d83613423565b915061368a82613625565b604082019050919050565b5f6020820190508181035f8301526136ac81613673565b9050919050565b7f596f7572206d656d6265727368697020686173206578706972656400000000005f82015250565b5f6136e7601b83613423565b91506136f2826136b3565b602082019050919050565b5f6020820190508181035f830152613714816136db565b9050919050565b7f57726f6e6720417070726f76616c2054797065000000000000000000000000005f82015250565b5f61374f601383613423565b915061375a8261371b565b602082019050919050565b5f6020820190508181035f83015261377c81613743565b9050919050565b7f506f74656e7469616c206163636f756e74206861736e277420617070726f76655f8201527f64207468656972206163636f756e740000000000000000000000000000000000602082015250565b5f6137dd602f83613423565b91506137e882613783565b604082019050919050565b5f6020820190508181035f83015261380a816137d1565b9050919050565b7f4f6e6c7920616c6c6f77656420666f7220706f74656e7469616c2073756261635f8201527f636f756e7420686f6c6465727300000000000000000000000000000000000000602082015250565b5f61386b602d83613423565b915061387682613811565b604082019050919050565b5f6020820190508181035f8301526138988161385f565b9050919050565b7f506f74656e7469616c207375626163636f756e74207573657220616c726561645f8201527f792068617320616e206163636f756e7400000000000000000000000000000000602082015250565b5f6138f9603083613423565b91506139048261389f565b604082019050919050565b5f6020820190508181035f830152613926816138ed565b9050919050565b7f496e7669746174696f6e2077617320616c72656164792073656e7400000000005f82015250565b5f613961601b83613423565b915061396c8261392d565b602082019050919050565b5f6020820190508181035f83015261398e81613955565b9050919050565b5f6060820190506139a85f8301866131d1565b6139b560208301856131d1565b6139c2604083018461325e565b949350505050565b7f596f752063616e6e6f7420706572666f726d207468697320616374696f6e00005f82015250565b5f6139fe601e83613423565b9150613a09826139ca565b602082019050919050565b5f6020820190508181035f830152613a2b816139f2565b9050919050565b7f596f7520616c72656164792068617665206120737562736372697074696f6e005f82015250565b5f613a66601f83613423565b9150613a7182613a32565b602082019050919050565b5f6020820190508181035f830152613a9381613a5a565b9050919050565b7f4e487b71000000000000000000000000000000000000000000000000000000005f52601160045260245ffd5b5f613ad182613117565b91507fffffffffffffffffffffffffffffffffffffffffffffffffffffffffffffffff8203613b0357613b02613a9a565b5b600182019050919050565b5f613b1882613117565b91505f8203613b2a57613b29613a9a565b5b600182039050919050565b7f4e487b71000000000000000000000000000000000000000000000000000000005f52602260045260245ffd5b5f6002820490506001821680613b7957607f821691505b602082108103613b8c57613b8b613b35565b5b50919050565b5f81905092915050565b5f819050815f5260205f209050919050565b5f8154613bba81613b62565b613bc48186613b92565b9450600182165f8114613bde5760018114613bf357613c25565b60ff1983168652811515820286019350613c25565b613bfc85613b9c565b5f5b83811015613c1d57815481890152600182019150602081019050613bfe565b838801955050505b50505092915050565b5f613c398284613bae565b915081905092915050565b7f4f776e6572206f66207468697320636f6e74726163742063616e6e6f742070655f8201527f72666f726d207468697320616374696f6e000000000000000000000000000000602082015250565b5f613c9e603183613423565b9150613ca982613c44565b604082019050919050565b5f6020820190508181035f830152613ccb81613c92565b905091905056fea264697066735822122041c3590773bb8301430712969b3f14d972eb43073c561522729e3ce300efbac464736f6c63430008150033",
  "immutableReferences": {},
  "source": "// SPDX-License-Identifier: MIT\npragma solidity ^0.8.0; \n\n// Track User Subscriptions \n    // By Addr\n// Update Status on Subscripton\n    // Enums (Inactive, Active) \n// Cancel Subscription based on status\n// Allow users to be notified when a price changed happened on a subscription\n    // Create Events\n\n\n// Allow users to give rating on subscriptions????\n\n// I want this contract to be able to be used by other developers\n// to create their own subscriptions\n// One contract per Subscription EX: Netflix -> One Subscription\n\n// Subscription name and price is going to be set on initialization of the contract (EX: Netflix, $0.00) \n\n// Biggest Issue: \n// How do users know they are buying the correct subscription and not some scam?\n// I can verify that users are buying the correct subscription through message signature\n// Each transaction is signed with a private key, which in returns creates a signature hash\n// This signature hash can be used to verify the owner of sed subscription\n\n\n// Fracationlized Accounts, also called split accounts (splitAcct) represent a roomate to roomate behavior. \n// This means that you want to share the subscription, buy both will split the subscription payment between each other\n\n// NonFractionalized Accounts, also called sub accounts (subAcct) represents a parent adding a child to their membership\n// Meaning, they are considered add-ons, and can be set up to require a fee\n\n/// @author Keshawn\n/// @title Subscription Project\n/// @custom:experimental This is an experimental contract.\n\nimport \"@openzeppelin/contracts/access/Ownable.sol\";\n\ncontract Subscription is Ownable { \n\n    string internal name; \n    uint internal price; \n    uint internal addOnAcctPrice;\n    uint internal timeFrame; \n    string[] internal acceptedTokens;\n    uint private _subscribers; \n    uint private _cancellations; \n\n    uint private pendingId; \n\n    struct SubscriptionData {\n        uint price; \n        uint timeframe; \n        uint addOnAcctPrice;\n        uint subscribers; \n        uint cancellations;\n        string name;\n    }\n\n    SubscriptionData public subscriptionData;\n\n    /// @notice Constructor Initiates Subscription Data Struct\n    /// @param _name, _price, _timeframe \n    /// @dev other paramters included default values set by the variables in the beginning \n    constructor(string memory _name, uint _price, uint _timeframe) Ownable(msg.sender) {\n       subscriptionData = SubscriptionData(\n        _price, \n        block.timestamp + _timeframe, \n        addOnAcctPrice, \n        _subscribers,\n         _cancellations, \n         _name\n        ); \n    }\n\n    struct Membership {\n        uint price; \n        address mainAcct; \n        address[] subAccts;\n        address[] splitAccts; \n        bool ownedPreviousMembership;\n        bool isExpired;\n    }\n\n    struct PendingApproval {\n        address from; \n        address to; \n        bool status; \n        ApprovalType _approvalType; \n    }\n    \n    /// @notice FractionalizedApproval stands for the user who are on the main holder's \n    /// @notice account, and they share the subscription (Fractionalized Ownership) \n    /// @notice NonFractionalApproval stands for users who are on the main holder's\n    /// @notice account, and they don't share the subscription (Non-Fractionalized Ownership)\n    enum ApprovalType {NonFractionalApproval, FractionalizedApproval}\n\n    event StatusChanged(address indexed user, bool _newStatus, bool _oldStatus);\n    event Subscribed(address indexed user, uint _price); \n    event CancelSubscription(address indexed user); \n    event DeleteMembership(address indexed user);\n    event PriceUpdate(string indexed _name, uint _price);\n    event SendApproval(uint indexed id, address from, address to, ApprovalType approvalType); \n    event ConfirmSubAcctApproval(address indexed potentialSubAcct); \n    event ConfirmSplitAcctApproval(address indexed potentialSubAcct);\n    event RejectApproval(address indexed potentialSubAcct); \n    \n    mapping(address => bool) public isSubscribed; // Are they subscribed?\n    mapping(address => Membership) public memberships; // Represents Memberships\n    \n    mapping(address subacct => PendingApproval) public pendingApprovals; // Represents Pending Approvals\n    mapping(address _sendTo => bool) public sentApproval; // Has the approval been sent?\n\n    //mapping(address subaccount => address mainholder) //Are they a sub account? \n\n    /// @notice This modifier checks to see if the subscription is active by: \n    /// @notice 1. Makes sure the owner of the contract cannot perform certain functions\n    /// @notice 2. Makes sure only the main account holder can perform that certain function\n    /// @notice 3. Makes sure that person is subscribed\n    modifier isSubscriptionActive() {\n        require(owner() != msg.sender, \"The owner of this contract cannot perform this action\"); \n        require(msg.sender == memberships[msg.sender].mainAcct, \"Only the main account holder can execute this operation\"); //checks to see if you are the main acct holder\n        require(isSubscribed[msg.sender] == true, \"Subscription doesn't exist, or it's cancelled\"); // checks to see if the subscription exist\n                \n        Membership storage _membership = memberships[msg.sender]; \n        if(block.timestamp < subscriptionData.timeframe) {\n           _membership.isExpired = true;  \n        }\n\n        require(_membership.isExpired == false, \"Your membership has expired\"); \n\n        _; \n    }\n\n    /// @notice This modifier checks to see if the pending approval has been approved by: \n    /// @notice 1. Makes sure the owner of the contract cannot perform this action \n    /// @notice 2. Makes sure the approval type is correct (Non-Fractional or Fractional) \n    /// @notice 3. Makes sure the approval has been approved\n    /// @param _from represents the approval\n    modifier isApproved(address _from, ApprovalType _approvalType) {\n        PendingApproval storage getApproval = pendingApprovals[_from]; \n        \n        require(owner() != msg.sender, \"The owner of this contract cannot perform this action\"); \n        require(getApproval._approvalType == _approvalType, \"Wrong Approval Type\"); \n        require(getApproval.status == true, \"Potential account hasn't approved their account\"); \n        _; \n    }\n\n    /// @notice This modifier checks to see if the potential account, which is a possible \n    /// @notice sub account user, already has their own subscription where they are the main holder\n    /// @param _sendTo represents who the request is going to\n    modifier isPotentialAcctSubscribed(address _sendTo) {\n        require(isSubscribed[_sendTo] == false, \"Potential subaccount user already has an account\");\n        _; \n    }\n\n    /// @return Returns the amount subscribers \n    function getSubscribers() external view returns(uint) {\n        return subscriptionData.subscribers; \n    }   \n\n    /// @return Return the amount of cancellations by previous subscribers\n    function getCancellations() external view returns(uint) {\n        return subscriptionData.cancellations; \n    }     \n\n    /// @notice Allows users to subscribe to the subscription \n    /// REMINDER: Make sure users have enough funds in their wallet\n    /// REMINDER: Make sure the function is made payable\n    function subscribe() public payable virtual {\n        require(owner() != msg.sender, \"You cannot perform this action\"); \n        require(isSubscribed[msg.sender] == false, \"You already have a subscription\"); \n\n        if (memberships[msg.sender].ownedPreviousMembership == false){\n            Membership memory _member; \n            _member.mainAcct = msg.sender;  \n\n            memberships[msg.sender] = _member;  \n            isSubscribed[msg.sender] = true;\n            subscriptionData.subscribers++;\n\n            emit Subscribed(msg.sender, subscriptionData.price);\n        }\n\n        else {\n            Membership memory _member; \n            _member.mainAcct = msg.sender;  \n\n            memberships[msg.sender] = _member;  \n            isSubscribed[msg.sender] = true;\n\n            subscriptionData.cancellations--;\n            subscriptionData.subscribers++; \n\n            emit Subscribed(msg.sender, subscriptionData.price);\n    \n        }\n    } \n    \n    /// @notice Unsubscribes membership from subscription \n    /// @notice Tracks subscriptions and cancellations\n    function cancel() external isSubscriptionActive  {   \n        isSubscribed[msg.sender] = false;\n        memberships[msg.sender].ownedPreviousMembership = true; \n        subscriptionData.cancellations++;\n        subscriptionData.subscribers--; \n\n        emit CancelSubscription(msg.sender);\n    }\n\n    /// @custom:removefunction I may remove this function \n    /// REMINDER: Test Functionality\n    function deleteMembership() external isSubscriptionActive  {\n        delete isSubscribed[msg.sender]; \n        emit DeleteMembership(msg.sender);\n    }\n\n    /// @dev This function will only allow the owner of the contract to set the subscription price\n    /// @param _setPrice Sets a new price for the subscription \n    /// REMINDER: _setPrice cannot be lower than zero\n    function changePrice(uint _setPrice) external onlyOwner {\n        subscriptionData.price = _setPrice;  \n        emit PriceUpdate(name, _setPrice);\n    }\n\n    /// @notice This function will send a non fractionalized approval to the potential subaccount \n    /// @param _sendTo Address of the potential subaccount holder (Non-Fractional)\n    function sendNonFractionalizedInvitation(address _sendTo) external virtual isSubscriptionActive isPotentialAcctSubscribed(_sendTo)  {\n        require(sentApproval[_sendTo] == false, \"Invitation was already sent\");\n\n        ApprovalType approveType = ApprovalType.NonFractionalApproval;\n\n        PendingApproval memory _pendingapproval = PendingApproval({from: msg.sender, to: _sendTo, status: true, _approvalType: approveType });         \n        pendingApprovals[_sendTo] = _pendingapproval; \n\n        sentApproval[_sendTo] = true; \n                \n        emit SendApproval(pendingId, msg.sender, _sendTo, approveType); \n    }\n\n    /// @notice Ex: A roomate wants to add the roomate to their subscription, \n    /// @notice but they want to split/share the subscription between them\n    /// @param _sendTo Address of the potential subaccount holder  (Fractionalized) \n    function sendFractionalizedInvitation(address _sendTo) external virtual isSubscriptionActive isPotentialAcctSubscribed(_sendTo)  {\n        require(sentApproval[_sendTo] == false, \"Invitation was already sent\");\n\n        ApprovalType approveType = ApprovalType.FractionalizedApproval;\n         \n        PendingApproval memory _pendingapproval = PendingApproval({from: msg.sender, to: _sendTo, status: true, _approvalType: approveType});\n        pendingApprovals[_sendTo] = _pendingapproval; \n\n        sentApproval[_sendTo] = true; \n        \n        emit SendApproval(pendingId, msg.sender, _sendTo, approveType);\n    }\n\n    /// @notice Allow users to confirm they have approved a split account or sub account subscription\n    /// @param _sendTo represents addr of the pending approval\n    /// @param _approvalType represents the approval type (fractional or non-fractional) \n    function confirmApproval(address _sendTo, ApprovalType _approvalType) external virtual {\n        require(pendingApprovals[_sendTo].to == msg.sender, \"Only allowed for potential subaccount holders\"); \n    \n        if (_approvalType == ApprovalType.NonFractionalApproval) {\n            emit ConfirmSubAcctApproval(msg.sender); \n        }\n        \n        else if (_approvalType == ApprovalType.FractionalizedApproval) {\n            emit ConfirmSplitAcctApproval(msg.sender); \n        }\n\n    }\n    \n\n    /// @notice Allows potential sub account holders to reject an approval \n    /// @param _from represents of the pending approval\n    function rejectInvitation(address _from) external virtual  {\n        require(owner() != msg.sender, \"Owner of this contract cannot perform this action\"); \n        require(pendingApprovals[_from].to == msg.sender, \"Only allowed for potential subaccount holders\"); \n        delete pendingApprovals[_from]; \n        emit RejectApproval(msg.sender);\n    }\n\n    /// @notice Add split account to membership\n    /// @param _splitAcct represents who you want to add to the split account\n    /// @param _from represents the pending approval\n    function addSplitAcct(address _splitAcct, address _from) public virtual isSubscriptionActive isApproved(_from, ApprovalType.NonFractionalApproval)  {\n        Membership storage _membership = memberships[msg.sender]; \n        _membership.splitAccts.push(_splitAcct);\n    }\n\n    /// @notice Add sub account to membership\n    /// @param _subAcct represents who you want to add to the sub account\n    /// @param _from represents the pending approval\n    function addSubAcct(address _subAcct, address _from) public virtual isSubscriptionActive isApproved(_from, ApprovalType.FractionalizedApproval)  {\n        Membership storage _membership = memberships[msg.sender]; \n        _membership.subAccts.push(_subAcct); \n    }\n\n    // renew a persons membership\n    // checks to see if they have a membership\n    // makes them pay the subscription fee to renew membership\n    function renew() external view {\n        require(owner() != msg.sender, \"The owner of this contract cannot perform this action\"); \n        require(msg.sender == memberships[msg.sender].mainAcct, \"Only the main account holder can execute this operation\"); //checks to see if you are the main acct holder\n        require(isSubscribed[msg.sender] == true, \"Subscription doesn't exist, or it's cancelled\");        \n        //require() some sort of payment from the msg.sender\n        // membership.expired = false \n    }\n}",
  "sourcePath": "/home/keshawnstrong/Desktop/git/Subscriptions/contracts/Subscriptions.sol",
  "compiler": {
    "name": "solc",
    "version": "0.8.21+commit.d9974bed.Emscripten.clang"
  },
  "schemaVersion": "3.4.16",
  "updatedAt": "2025-04-03T01:49:45.752Z",
  "devdoc": {
    "errors": {
      "OwnableInvalidOwner(address)": [
        {
          "details": "The owner is not a valid owner account. (eg. `address(0)`)"
        }
      ],
      "OwnableUnauthorizedAccount(address)": [
        {
          "details": "The caller account is not authorized to perform an operation."
        }
      ]
    },
    "kind": "dev",
    "methods": {
      "addSplitAcct(address,address)": {
        "params": {
          "_from": "represents the pending approval",
          "_splitAcct": "represents who you want to add to the split account"
        }
      },
      "addSubAcct(address,address)": {
        "params": {
          "_from": "represents the pending approval",
          "_subAcct": "represents who you want to add to the sub account"
        }
      },
      "changePrice(uint256)": {
        "details": "This function will only allow the owner of the contract to set the subscription price",
        "params": {
          "_setPrice": "Sets a new price for the subscription  REMINDER: _setPrice cannot be lower than zero"
        }
      },
      "confirmApproval(address,uint8)": {
        "params": {
          "_approvalType": "represents the approval type (fractional or non-fractional) ",
          "_sendTo": "represents addr of the pending approval"
        }
      },
      "constructor": {
        "details": "other paramters included default values set by the variables in the beginning ",
        "params": {
          "_name": ", _price, _timeframe "
        }
      },
      "deleteMembership()": {
        "custom:removefunction": "I may remove this function  REMINDER: Test Functionality"
      },
      "getCancellations()": {
        "returns": {
          "_0": "Return the amount of cancellations by previous subscribers"
        }
      },
      "getSubscribers()": {
        "returns": {
          "_0": "Returns the amount subscribers "
        }
      },
      "owner()": {
        "details": "Returns the address of the current owner."
      },
      "rejectInvitation(address)": {
        "params": {
          "_from": "represents of the pending approval"
        }
      },
      "renounceOwnership()": {
        "details": "Leaves the contract without owner. It will not be possible to call `onlyOwner` functions. Can only be called by the current owner. NOTE: Renouncing ownership will leave the contract without an owner, thereby disabling any functionality that is only available to the owner."
      },
      "sendFractionalizedInvitation(address)": {
        "params": {
          "_sendTo": "Address of the potential subaccount holder  (Fractionalized) "
        }
      },
      "sendNonFractionalizedInvitation(address)": {
        "params": {
          "_sendTo": "Address of the potential subaccount holder (Non-Fractional)"
        }
      },
      "transferOwnership(address)": {
        "details": "Transfers ownership of the contract to a new account (`newOwner`). Can only be called by the current owner."
      }
    },
    "version": 1
  },
  "userdoc": {
    "kind": "user",
    "methods": {
      "addSplitAcct(address,address)": {
        "notice": "Add split account to membership"
      },
      "addSubAcct(address,address)": {
        "notice": "Add sub account to membership"
      },
      "cancel()": {
        "notice": "Unsubscribes membership from subscription Tracks subscriptions and cancellations"
      },
      "confirmApproval(address,uint8)": {
        "notice": "Allow users to confirm they have approved a split account or sub account subscription"
      },
      "constructor": {
        "notice": "Constructor Initiates Subscription Data Struct"
      },
      "rejectInvitation(address)": {
        "notice": "Allows potential sub account holders to reject an approval "
      },
      "sendFractionalizedInvitation(address)": {
        "notice": "Ex: A roomate wants to add the roomate to their subscription, but they want to split/share the subscription between them"
      },
      "sendNonFractionalizedInvitation(address)": {
        "notice": "This function will send a non fractionalized approval to the potential subaccount "
      },
      "subscribe()": {
        "notice": "Allows users to subscribe to the subscription  REMINDER: Make sure users have enough funds in their wallet REMINDER: Make sure the function is made payable"
      }
    },
    "version": 1
  }
}